:020000040800F2
:10000000005000201D610008313100083331000824
:100010003531000837310008393100080000000090
:1000200000000000000000000000000091560008E1
:100030003B310008000000003157000875570008E8
:100040006561000865610008656100086561000878
:100050006561000865610008656100086561000868
:100060006561000865610008656100086561000858
:1000700065610008656100083D3100084D310008E8
:100080006561000865610008656100086561000838
:100090006561000865610008656100086561000828
:1000A000656100085D310008656100086561000850
:1000B0006561000865610008656100086561000808
:1000C00065610008656100086561000865610008F8
:1000D000656100086D310008656100086561000810
:1000E00065610008656100086561000800000000A6
:1000F0000000000000000000000000000000000000
:0C01000000000000000000005FF808F1A3
:10011000844641EA000313F0030349D1403A23D354
:100120000B6803604B6843608B688360CB68C36077
:100130000B6903614B6943618B698361CB69C3615F
:100140000B6A03624B6A43628B6A8362CB6AC36247
:100150000B6B03634B6B43638B6B8363CB6BC3632F
:1001600040304031403ADBD230320BD30B68036071
:100170004B6843608B688360CB68C360103010317C
:10018000103AF3D20C3205D351F8043B40F8043B4B
:10019000043AF9D2043208D0D2071CBF11F8013B4F
:1001A00000F8013B01D30B8803806046704700BF15
:1001B000082A13D38B07B1D010F00303AED0C3F1DC
:1001C0000403D21ADB071CBF11F8013B00F8013B06
:1001D000A4D331F8023B20F8023B9FE7043AD9D37D
:1001E000013A11F8013B00F8013BF9D20B7803709A
:1001F0004B7843708B7883706046704780EA010CBF
:100200001CF0030F37D110F0030C20F0030021F095
:10021000030150F8042B08BF51F8043B0ED08CF0BA
:10022000030C6FF07F434FEACC0C23FA0CFC51F81F
:10023000043B42EA0C0243EA0C0300BFA2F1013C7A
:100240009A4201BF2CEA020C1CF0803F50F8042BAC
:1002500051F8043BF2D04FEA02604FEA1222012823
:1002600028BFB0EB036F08BF1B0AF4D003F0FF03F5
:10027000000EC01A704710F0030F0AD010F8012BBF
:1002800011F8013B012A28BF9A42F4D0A2EB0300E7
:1002900070474DF8045D50F8042B01F0030521F080
:1002A000030151F8043B022D26D04DD822F07F45A2
:1002B000B5EB132FA2F1013C2CEA020C0DD11CF07E
:1002C000803C08BF51F8043B0AD185EA0205B5EB32
:1002D000036F0CD150F8042BE8E74FEA13235BE0DF
:1002E0003CF07F4C54D10B784FEA126554E04FEA52
:1002F000126503F0FF034FE04FEA0245A2F1013C13
:100300004FEA15452CEA020CB5EB134F18D11CF03F
:10031000803C08BF51F8043B07D185EA0205B5EBE4
:10032000034F09D150F8042BE6E75FEA0C4C2FD1BC
:100330000B884FEA12452FE04FEA03434FEA12457C
:100340004FEA134328E000BF02F0FF05B5EB136F3F
:10035000A2F1013C2CEA020C0DD11CF0803C08BF3C
:1003600051F8043B0AD185EA0205B5EB032F0AD107
:1003700050F8042BE8E74FEA13630DE012F0FF0F8B
:1003800006D051F8043B4FEA122523F07F4303E0E7
:100390004FF0000020BC704705F0FF0203F0FF00A3
:1003A000012828BF904204BF2D0A1B0AF4D0A2EBFB
:1003B000000020BC704700BF81F0004102E000BF98
:1003C00083F0004330B54FEA41044FEA430594EA15
:1003D000050F08BF90EA020F1FBF54EA000C55EA50
:1003E000020C7FEA645C7FEA655C00F0E2804FEA21
:1003F0005454D4EB5555B8BF6D420CDD2C4480EA03
:10040000020281EA030382EA000083EA010180EA32
:10041000020281EA0303362D88BF30BD11F0004F80
:100420004FEA01314FF4801C4CEA113102D04042B6
:1004300061EB410113F0004F4FEA03334CEA1333F1
:1004400002D0524263EB430394EA050F00F0A78009
:10045000A4F10104D5F1200E0DDB02FA0EFC22FA04
:1004600005F2801841F1000103FA0EF2801843FAF8
:1004700005F359410EE0A5F120050EF1200E012AE9
:1004800003FA0EFC28BF4CF0020C43FA05F3C01827
:1004900051EBE37101F0004507D54FF0000EDCF1A0
:1004A000000C7EEB00006EEB0101B1F5801F1BD349
:1004B000B1F5001F0CD349085FEA30004FEA3C0C4D
:1004C00004F101044FEA445212F5800F80F09A8043
:1004D000BCF1004F08BF5FEA500C50F1000041EB47
:1004E000045141EA050130BD5FEA4C0C404141EB4B
:1004F0000101013C28BFB1F5801FE9D291F0000F46
:1005000004BF01460020B1FA81F308BF2033A3F1F4
:100510000B03B3F120020CDA0C3208DD02F1140CEB
:10052000C2F10C0201FA0CF021FA02F10CE002F126
:100530001402D8BFC2F1200C01FA02F120FA0CFC1F
:10054000DCBF41EA0C019040E41AA2BF01EB045168
:10055000294330BD6FEA04041F3C1CDA0C340EDC66
:1005600004F11404C4F1200220FA04F001FA02F3A9
:1005700040EA030021FA04F345EA030130BDC4F167
:100580000C04C4F1200220FA02F001FA04F340EA5C
:100590000300294630BD21FA04F0294630BD94F00D
:1005A000000F83F4801306BF81F480110134013DF4
:1005B0004EE77FEA645C18BF7FEA655C29D094EA65
:1005C000050F08BF90EA020F05D054EA000C04BFE3
:1005D0001946104630BD91EA030F1EBF00210020CE
:1005E00030BD5FEA545C05D14000494128BF41F06D
:1005F000004130BD14F580043CBF01F5801130BDD1
:1006000001F0004545F0FE4141F470014FF000005B
:1006100030BD7FEA645C1ABF194610467FEA655C0C
:100620001CBF0B46024650EA013406BF52EA0335AE
:1006300091EA030F41F4002130BD00BF90F0000F9C
:1006400004BF0021704730B54FF4806404F13204D8
:100650004FF000054FF0000150E700BF90F0000F91
:1006600004BF0021704730B54FF4806404F13204B8
:1006700010F0004548BF40424FF000013EE700BF88
:1006800042004FEAE2014FEA31014FEA02701FBF18
:1006900012F07F4393F07F4F81F06051704732F04A
:1006A0007F4208BF704793F07F4F04BF41F40021A1
:1006B000704730B54FF4607401F0004521F00041FF
:1006C0001CE700BF50EA010208BF704730B54FF089
:1006D00000050AE050EA010208BF704730B511F08A
:1006E000004502D5404261EB41014FF4806404F1C2
:1006F00032045FEA915C3FF4D8AE4FF003025FEA48
:10070000DC0C18BF03325FEADC0C18BF033202EBCB
:10071000DC02C2F1200300FA03FC20FA02F001FA25
:1007200003FE40EA0E0021FA02F11444BDE600BFC8
:1007300070B54FF0FF0C4CF4E06C1CEA11541DBF77
:100740001CEA135594EA0C0F95EA0C0F00F0DEF842
:100750002C4481EA030621EA4C5123EA4C5350EA27
:10076000013518BF52EA033541F4801143F4801378
:1007700038D0A0FB02CE4FF00005E1FB02E506F009
:100780000042E0FB03E54FF00006E1FB03569CF05E
:10079000000F18BF4EF0010EA4F1FF04B6F5007F64
:1007A00064F5407404D25FEA4E0E6D4146EB0606D6
:1007B00042EAC62141EA55514FEAC52040EA5E505F
:1007C0004FEACE2EB4F1FD0C88BFBCF5E06F1ED809
:1007D000BEF1004F08BF5FEA500E50F1000041EB40
:1007E000045170BD06F0004646EA010140EA0200ED
:1007F00081EA0301B4EB5C04C2BFD4EB0C0541EA0F
:10080000045170BD41F480114FF0000E013C00F323
:10081000AB8014F1360FDEBF002001F0004170BD47
:10082000C4F10004203C35DA0C341BDC04F1140460
:10083000C4F1200500FA05F320FA04F001FA05F2EC
:1008400040EA020001F0004221F0004110EBD370B9
:1008500021FA04F642EB06015EEA430E08BF20EAE5
:10086000D37070BDC4F10C04C4F1200500FA04F388
:1008700020FA05F001FA04F240EA020001F000411A
:1008800010EBD37041F100015EEA430E08BF20EA8D
:10089000D37070BDC4F1200500FA05F24EEA020ED5
:1008A00020FA04F301FA05F243EA020321FA04F004
:1008B00001F0004121FA04F220EA020000EBD370BB
:1008C0005EEA430E08BF20EAD37070BD94F0000FBB
:1008D0000FD101F00046400041EB010111F4801FEF
:1008E00008BF013CF7D041EA060195F0000F18BFA0
:1008F000704703F00046520043EB030313F4801FDC
:1009000008BF013DF7D043EA0603704794EA0C0F95
:100910000CEA135518BF95EA0C0F0CD050EA4106AB
:1009200018BF52EA4306D1D181EA030101F0004128
:100930004FF0000070BD50EA410606BF1046194650
:1009400052EA430619D094EA0C0F02D150EA01365C
:1009500013D195EA0C0F05D152EA03361CBF10469D
:1009600019460AD181EA030101F0004141F0FE413C
:1009700041F470014FF0000070BD41F0FE4141F4C0
:10098000780170BD70B54FF0FF0C4CF4E06C1CEAC0
:1009900011541DBF1CEA135594EA0C0F95EA0C0F75
:1009A00000F0A7F8A4EB050481EA030E52EA033530
:1009B0004FEA013100F088804FEA03334FF0805551
:1009C00045EA131343EA12634FEA022245EA11157E
:1009D00045EA10654FEA00260EF000419D4208BF2F
:1009E000964244F1FD0404F5407402D25B084FEADC
:1009F0003202B61A65EB03055B084FEA32024FF488
:100A000080104FF4002CB6EB020E75EB030E22BFE4
:100A1000B61A754640EA0C005B084FEA3202B6EBA4
:100A2000020E75EB030E22BFB61A754640EA5C0053
:100A30005B084FEA3202B6EB020E75EB030E22BFE3
:100A4000B61A754640EA9C005B084FEA3202B6EBE4
:100A5000020E75EB030E22BFB61A754640EADC00A3
:100A600055EA060E18D04FEA051545EA16754FEA05
:100A700006164FEAC30343EA52734FEAC2025FEA23
:100A80001C1CC0D111F4801F0BD141EA00014FF0B2
:100A900000004FF0004CB6E711F4801F04BF014383
:100AA0000020B4F1FD0C88BFBCF5E06F3FF6AFAE9F
:100AB000B5EB030C04BFB6EB020C5FEA500C50F12F
:100AC000000041EB045170BD0EF0004E4EEA1131B2
:100AD00014EB5C04C2BFD4EB0C0541EA045170BDB9
:100AE00041F480114FF0000E013C90E645EA060EFD
:100AF0008DE60CEA135594EA0C0F08BF95EA0C0F2B
:100B00003FF43BAF94EA0C0F0AD150EA01347FF472
:100B100034AF95EA0C0F7FF425AF104619462CE749
:100B200095EA0C0F06D152EA03353FF4FDAE1046AC
:100B3000194622E750EA410618BF52EA43067FF4FD
:100B4000C5AE50EA41047FF40DAF52EA43057FF48D
:100B5000EBAE12E74FF0FF3C06E000BF4FF0010C98
:100B600002E000BF4FF0010C4DF804CD4FEA410CFC
:100B70007FEA6C5C4FEA430C18BF7FEA6C5C1BD0C9
:100B800001B050EA410C0CBF52EA430C91EA030F4A
:100B900002BF90EA020F0020704710F1000F91EAA7
:100BA000030F58BF994208BF90422CBFD8176FEA75
:100BB000E37040F0010070474FEA410C7FEA6C5C43
:100BC00002D150EA013C07D14FEA430C7FEA6C5C4A
:100BD000D6D152EA033CD3D05DF8040B704700BF76
:100BE0008446104662468C461946634600E000BFC4
:100BF00001B5FFF7B7FF002848BF10F1000F01BD96
:100C00004DF808EDFFF7F4FF0CBF012000205DF860
:100C100008FB00BF4DF808EDFFF7EAFF34BF0120E5
:100C200000205DF808FB00BF4DF808EDFFF7E0FF7E
:100C300094BF012000205DF808FB00BF4DF808EDCF
:100C4000FFF7CEFF94BF012000205DF808FB00BF36
:100C50004DF808EDFFF7C4FF34BF012000205DF818
:100C600008FB00BF4FEA410C7FEA6C5C02D150EAFE
:100C7000013C0AD14FEA430C7FEA6C5C02D152EA94
:100C8000033C02D14FF0000070474FF00100704765
:100C90004FEA410212F5001215D211D56FF47873A4
:100CA000B3EB625212D94FEAC12343F0004343EA47
:100CB000505311F0004F23FA02F018BF4042704722
:100CC0004FF00000704750EA013005D111F00040AC
:100CD00008BF6FF0004070474FF00000704700BF42
:100CE00080F0004002E000BF81F0004142001FBFE1
:100CF0005FEA410392EA030F7FEA226C7FEA236CEA
:100D00006AD04FEA1262D2EB1363C1BFD2184140DE
:100D100048404140B8BF5B42192B88BF704710F074
:100D2000004F40F4000020F07F4018BF404211F017
:100D3000004F41F4000121F07F4118BF494292EA7F
:100D4000030F3FD0A2F1010241FA03FC10EB0C00AB
:100D5000C3F1200301FA03F100F0004302D5494238
:100D600060EB4000B0F5000F13D3B0F1807F06D3E5
:100D700040084FEA310102F10102FE2A51D2B1F1DD
:100D8000004F40EBC25008BF20F0010040EA0300D2
:100D90007047490040EB0000013A28BFB0F5000F52
:100DA000EDD2B0FA80FCACF1080CB2EB0C0200FA08
:100DB0000CF0AABF00EBC25052421843BCBFD04057
:100DC0001843704792F0000F81F4000106BF80F4D1
:100DD00000000132013BB5E74FEA41037FEA226C94
:100DE00018BF7FEA236C21D092EA030F04D092F05F
:100DF000000F08BF0846704790EA010F1CBF002093
:100E0000704712F07F4F04D1400028BF40F00040EF
:100E1000704712F100723CBF00F50000704700F00F
:100E2000004343F0FE4040F4000070477FEA226236
:100E300016BF08467FEA23630146420206BF5FEA07
:100E4000412390EA010F40F4800070474FF0000307
:100E500004E000BF10F0004348BF40425FEA000CCE
:100E600008BF704743F0964301464FF000001CE076
:100E700050EA010208BF70474FF000030AE000BFCC
:100E800050EA010208BF704711F0004302D540420A
:100E900061EB41015FEA010C02BF8446014600207C
:100EA00043F0B64308BFA3F18053A3F50003BCFA97
:100EB0008CF2083AA3EBC25310DB01FA02FC634444
:100EC00000FA02FCC2F12002BCF1004F20FA02F24B
:100ED00043EB020008BF20F00100704702F120023E
:100EE00001FA02FCC2F1200250EA4C0021FA02F29F
:100EF00043EB020008BF20EADC7070474FF0FF0CA4
:100F00001CEAD0521EBF1CEAD15392EA0C0F93EA9E
:100F10000C0F6FD01A4480EA010C400218BF5FEA40
:100F200041211ED04FF0006343EA501043EA5111B3
:100F3000A0FB01310CF00040B1F5000F3EBF4900AD
:100F400041EAD3715B0040EA010062F17F02FD2AB1
:100F50001DD8B3F1004F40EBC25008BF20F0010094
:100F6000704790F0000F0CF0004C08BF49024CEAAB
:100F7000502040EA51207F3AC2BFD2F1FF0340EA3D
:100F8000C250704740F400004FF00003013A5DDCAE
:100F900012F1190FDCBF00F000407047C2F10002EF
:100FA000410021FA02F1C2F1200200FA02FC5FEADC
:100FB000310040F1000053EA4C0308BF20EADC7026
:100FC000704792F0000F00F0004C02BF400010F498
:100FD000000F013AF9D040EA0C0093F0000F01F045
:100FE000004C02BF490011F4000F013BF9D041EA67
:100FF0000C018FE70CEAD15392EA0C0F18BF93EA69
:101000000C0F0AD030F0004C18BF31F0004CD8D192
:1010100080EA010000F00040704790F0000F17BF19
:1010200090F0004F084691F0000F91F0004F14D05F
:1010300092EA0C0F01D142020FD193EA0C0F03D1B7
:101040004B0218BF084608D180EA010000F00040BA
:1010500040F0FE4040F40000704740F0FE4040F495
:10106000400070474FF0FF0C1CEAD0521EBF1CEA34
:10107000D15392EA0C0F93EA0C0F69D0A2EB030252
:1010800080EA010C49024FEA402037D04FF08053EC
:1010900043EA111143EA10130CF000408B4238BFB1
:1010A0005B0042F17D024FF4000C8B4224BF5B1ABF
:1010B00040EA0C00B3EB510F24BFA3EB510340EA0D
:1010C0005C00B3EB910F24BFA3EB910340EA9C00BB
:1010D000B3EBD10F24BFA3EBD10340EADC001B012B
:1010E00018BF5FEA1C1CE0D1FD2A3FF650AF8B42CF
:1010F00040EBC25008BF20F0010070470CF0004CDC
:101100004CEA50207F32C2BFD2F1FF0340EAC25006
:10111000704740F400004FF00003013A37E792F0C7
:10112000000F00F0004C02BF400010F4000F013A25
:10113000F9D040EA0C0093F0000F01F0004C02BF20
:10114000490011F4000F013BF9D041EA0C0195E789
:101150000CEAD15392EA0C0F08D142027FF47DAF22
:1011600093EA0C0F7FF470AF084676E793EA0C0F12
:1011700004D14B023FF44CAF08466EE730F0004C10
:1011800018BF31F0004CCAD130F000427FF45CAFA0
:1011900031F000437FF43CAF5FE700BF4FF0FF3C0E
:1011A00006E000BF4FF0010C02E000BF4FF0010C61
:1011B0004DF804CD4FEA40024FEA41037FEA226C2A
:1011C00018BF7FEA236C11D001B052EA530C18BF4C
:1011D00090EA010F58BFB2EB030088BFC81738BFB1
:1011E0006FEAE17018BF40F0010070477FEA226C9F
:1011F00002D15FEA402C05D17FEA236CE4D15FEA9B
:10120000412CE1D05DF8040B704700BF84460846CE
:101210006146FFE70FB5FFF7C9FF002848BF10F18F
:10122000000F0FBD4DF808EDFFF7F4FF0CBF0120D4
:1012300000205DF808FB00BF4DF808EDFFF7EAFF5E
:1012400034BF012000205DF808FB00BF4DF808ED19
:10125000FFF7E0FF94BF012000205DF808FB00BF0E
:101260004DF808EDFFF7D2FF94BF012000205DF894
:1012700008FB00BF4DF808EDFFF7C8FF34BF0120A1
:1012800000205DF808FB00BF42000ED2B2F1FE4F15
:101290000BD34FF09E03B3EB126209D44FEA002345
:1012A00043F0004323FA02F070474FF0000070470C
:1012B00012F1610F01D1420202D14FF0FF307047AD
:1012C0004FF00000704700BF53B94AB9002908BF6A
:1012D00000281CBF4FF0FF314FF0FF3000F0E2B8A4
:1012E000ADF1080C6DE904CE12F048F9DDF804E028
:1012F000DDE9022304B0704700F1340191E83800C1
:101300009C46A6464CF8045D90E8FF0FE54600BDFC
:1013100090EC210B704700BF80EC210B704700BFA1
:1013200090EC200B704700BF80EC200B704700BF93
:10133000D0EC200B704700BFC0EC200B704700BF03
:10134000F0EC0201F0EC0211F0EC0221F0EC0231C1
:10135000F0EC0241F0EC0251F0EC0261F0EC0271B1
:10136000F0EC0281F0EC0291F0EC02A1F0EC02B1A1
:10137000F0EC02C1F0EC02D1F0EC02E1F0EC02F191
:10138000704700BFE0EC0201E0EC0211E0EC02214A
:10139000E0EC0231E0EC0241E0EC0251E0EC0261F1
:1013A000E0EC0271E0EC0281E0EC0291E0EC02A1E1
:1013B000E0EC02B1E0EC02C1E0EC02D1E0EC02E1D1
:1013C000E0EC02F1704700BFB0FC0181B0FC01917C
:1013D000B0FC01A1B0FC01B1704700BFA0FC0181CD
:1013E000A0FC0191A0FC01A1A0FC01B1704700BFCD
:1013F000EC4600B52DE900502DE9FF1F4FF000032A
:101400002DE90C0001A912F081FBDDF840E012B0DB
:10141000704700BFEC4600B52DE900502DE9FF1FD5
:101420004FF000032DE90C0001A912F0AFFBDDF82D
:1014300040E012B0704700BFEC4600B52DE9005007
:101440002DE9FF1F4FF000032DE90C0001A912F058
:10145000BFFBDDF840E012B0704700BFEC4600B5BE
:101460002DE900502DE9FF1F4FF000032DE90C007E
:1014700001AB12F07FFBDDF840E012B0704700BF17
:10148000EC4600B52DE900502DE9FF1F4FF0000399
:101490002DE90C0001AA12F0F9FBDDF840E012B0D2
:1014A000704700BF704700BF10B5054C237833B9B3
:1014B000044B13B10448AFF300800123237010BD27
:1014C000F009002000000000B048010808B5034BF7
:1014D0001BB103490348AFF3008008BD00000000C2
:1014E000F4090020B048010808B50268034B9A428D
:1014F00000D008BD01F094FFFBE700BF002C0140C5
:1015000072B6FEE700B591B02822002106A80CF0C3
:101510005FFC00230193029303930493059302233A
:10152000069301220A9210220B920D934FF460133E
:101530000F9306A802F01AFF80B90F23019302212E
:101540000291002303934FF480620492059301A853
:1015500003F04AF920B911B05DF804FBFFF7D0FFA2
:10156000FFF7CEFF08B501F049FFFFF7CBFF01F011
:10157000E7FC01F0D5FB01F029FC01F023FD01F0AF
:101580005DFE01F049FC01F0A3FE01F07DFA01F0DF
:10159000A9FC03F0D9FFFEE730B58BB0234C244DF6
:1015A0000FCD0FC40FCD0FC495E8030084E80300EE
:1015B000002400E001340D2C26DC05940121069165
:1015C00000230793A3009BB25A0100925A1892B2CB
:1015D000520101929A1C92B25201029203339BB2C1
:1015E0005B010393002C04EA0103B8BF5B42049340
:1015F00008910E23099369460C4801F0C9FF0028A1
:10160000D8D0FFF77DFFD5E7084802F047F830B99A
:101610001221064802F070F820B90BB030BDFFF778
:101620006FFFF5E7FFF76CFFF7E700BF0C0A00203C
:10163000D015002070B5044616461D46C9B201F00B
:10164000F6F9F1B204F10A0001F0F1F9E9B204F19E
:10165000140001F061F900236362A36223634FF475
:10166000FA6262632387E362204670BD38B50446A0
:101670001546C9B201F0D9F9E9B204F10A0001F046
:10168000D4F938BD10B50446018759B1022911D0EB
:10169000002918DD01F0D7F9002104F10A0001F05A
:1016A000D2F906E001F0CFF9002104F10A0001F0BF
:1016B000CAF910BD012101F0C6F9012104F10A00A7
:1016C00001F0C1F9F5E7002101F0BDF9218F494290
:1016D00009B204F10A0001F0B6F9EAE738B50546A7
:1016E0000C4600212046FFF7A7FD40B94FF07E5180
:1016F0002046FFF7BFFD18B14FF07E5400E00024F4
:1017000005492046FFF7FAFBFFF7BEFDC1B22846A8
:1017100004F0B4FC38BD00BF00007F432DE9F04168
:1017200082B08046074602260BE0002301221946BC
:101730002846FFF77FFF3C35013C002CF5DAF037F7
:10174000013E002E02DB3D460324F6E70023012282
:10175000194608F53470FFF76DFF00240094234606
:101760002246214608F5437001F004F90094012354
:101770002246214608F5507001F0FCF8404602B0C0
:10178000BDE8F0812DE9F04180460F46002619E0C2
:10179000C5EB0513C6EB0614240104EB8304444493
:1017A00005EB860307EB4302527817F81310204627
:1017B000FFF75CFF00212046FFF764FF0135032D92
:1017C000E6DD0136022E01DC0025F8E7BDE8F081F8
:1017D00010B500F534742046FFF748FF002120467D
:1017E000FFF750FF10BD10B5044600F5437001F03F
:1017F000B2F89DF810309DF80C209DF8081004F503
:10180000507001F0A8F810BDF8B507460E46002547
:101810000EE0C4EB0413C5EB0510000100EB8300E0
:1018200031463844FFF72EFF0134032CF1DD01353A
:10183000022D01DC0024F8E7F8BDF8B507460E4696
:10184000002511E004EB8503C4EB0412C5EB051081
:10185000000100EB820036F913103844FFF712FF45
:101860000134032CEEDD0135022D01DC0024F8E704
:10187000F8BD08B500F5437001F0AAF808BD08B539
:1018800000F5437001F09FF808BD08B500F55070F1
:1018900001F09EF808BD08B500F5507001F093F80E
:1018A00008BD00B543680B7043681B0A4B70C388C2
:1018B0008B70C379CB704FF0000C04220CE0C3682E
:1018C00033F91C309BB28B541B0A02F1010E01F854
:1018D0000E3002320CF1010C43686345EFD8B0F9C9
:1018E00010309BB28B541B0A02F1010C01F80C3032
:1018F00002F1020CB0F912309BB201F80C301B0A55
:1019000002F1030C01F80C3002F1040CB0F91430B0
:101910009BB201F80C301B0A02F1050C01F80C30E7
:10192000931DB0F816C001F803C0C38A1B0AD01D6E
:101930000B5402F108005DF804FB000000487047FA
:1019400000490108004870471C49010800B5436878
:101950000B7043681B0A4B70C3888B70C379CB70C4
:101960004FF0000C04220CE0C36833F91C309BB22A
:101970008B541B0A02F1010E01F80E3002320CF1F9
:10198000010C43686345EFD8B0F910309BB28B541B
:101990001B0A02F1010C01F80C3002F1020CB0F943
:1019A00012309BB201F80C301B0A02F1030C01F853
:1019B0000C3002F1040CB0F914309BB201F80C3079
:1019C0001B0A501D0B54901D5DF804FB0048704726
:1019D00040490108004870475C49010843680B70A2
:1019E00043681B0A4B70C3888B70C379CB708368C4
:1019F0000B7183681B0A4B7143898B71C37ACB715E
:101A0000082070470B7843604A7843EA022343601A
:101A10008A7843EA02434360CA7843EA0263436038
:101A20000B7983604A7943EA022383608A7943EA27
:101A300002438360CA7943EA0263836008207047E7
:101A400000487047804901080048704790490108E4
:101A500000487047B449010800487047D049010860
:101A600000487047F449010800487047084A0108D7
:101A700000487047804D0108004870472C4A010813
:101A800090F800077047806A704700000048704770
:101A900000490108004870471C49010870B5044618
:101AA0000D460E784B7846EA03268B7846EA0346C5
:101AB000CB7846EA03664368B34204D366604FF0CE
:101AC000000C042011E07100C0680CF019FAE0600D
:101AD000F4E72B5C411C695C43EA0123238102305B
:101AE000E16821F81C300CF1010C63686345F0D803
:101AF0002B5C411C695C43EA01232382831CEB5C61
:101B0000C11C695C43EA01236382031DEB5C411D38
:101B1000695C43EA0123A382063070BD70B50446B8
:101B20000D460E784B7846EA03268B7846EA034644
:101B3000CB7846EA03664368B34203D3666000206D
:101B4000042310E07100C0680CF0DAF9E060F5E7FA
:101B5000EA5C591C695C42EA012222810233E16895
:101B600021F81020013062688242F1D8EA5C591CE9
:101B7000695C42EA012222829A1CAA5CD91C695C37
:101B800042EA012262821A1DAA5C591D695C42EA7E
:101B90000122A2829A1DAA5CE282D91D695C42EAF6
:101BA0000122E28203F1080070BD38B5044600F15D
:101BB0000C052846FFF7B2FF636A2846984738BDF0
:101BC0002DE9F04106460D4683880B7083881B0A79
:101BD0004B7080680CF070FC0446002305E0DA00CE
:101BE00024FA02F2991C6A540133032BF7D92246D6
:101BF000B168A81DFEF78CFA04F10608F0680CF035
:101C00005BFC0746002306E0D90027FA01F108EB48
:101C10000302A9540133032BF6D90A343A46F1687A
:101C20002819FEF775FA3C4430690CF045FC07466C
:101C3000002305E0D90027FA01F1E218A954013385
:101C4000032BF7D904343A4631692819FEF760FAB4
:101C5000E01973692B54190A421CA954190C821CEF
:101C6000A9541B0EC21CAB540430BDE8F08170B502
:101C700006460D4603790B7080680CF01DFC044687
:101C8000002306E04FEAC30C24FA0CFC013305F8EC
:101C900003C0032BF6D92246B168681DFEF738FA57
:101CA000601D70BD2DE9F84306460D4643680B7074
:101CB00043681B0A4B70C3888B70C379CB700022BA
:101CC0000424736893420FD9F36853F822302B55DC
:101CD000180A611C6854180CA11C68541B0EE11CE6
:101CE0006B5404340132ECE733692B5533691B0A1A
:101CF000621CAB54728AA31CEA54F27CE31CEA54C3
:101D000004340022336993420FD9B36953F8223067
:101D10002B55180A611C6854180CA11C68541B0E22
:101D2000E11C6B5404340132ECE7F3692B55F36981
:101D30001B0A621CAB54F28BA31CEA54F27FE31C17
:101D4000EA5404344FF0000814E04FEAC30C27FAB9
:101D50000CFCCA1805F802C00133032BF5D9043472
:101D6000736A3A4653F809102819FEF7D1F93C4432
:101D700008F10108F36943450AD9736A4FEA8809F3
:101D800053F828000CF098FB074621460023E4E7AF
:101D90002046BDE8F883F8B505460C460E784B782A
:101DA00046EA03268B7846EA0346CB7846EA036682
:101DB0004368B34219D36E60002204266B689342D5
:101DC00019D9A35D711C615C43EA0123B11C615CFC
:101DD00043EA0143F11C615C43EA0163AB600436F2
:101DE000E96841F822300132E8E7B100C0680CF040
:101DF00087F8E860DFE7A75D731CE35C47EA032729
:101E0000B31CE35C47EA0347F31CE35C47EA036760
:101E100004362B69BB4218D32F6100222B699342F1
:101E200019D9A35D711C615C43EA0123B11C615C9B
:101E300043EA0143F11C615C43EA01636B610436D0
:101E4000A96941F822300132E8E7B900A8690CF02D
:101E500057F8A861E0E7A75D731CE35C47EA032736
:101E6000B31CE35C47EA0347F31CE35C47EA036700
:101E70000436EB69BB4203D3EF614FF0000E1DE067
:101E8000B900686A0CF03CF86862F5E7043633463E
:101E900003E05A1EE05CA054013372189A42F8D84D
:101EA000013A0023A3540CF1030C04EB0C032B6246
:101EB0000E446A6A42F82E300EF1010EEB6973454A
:101EC0000BD9B446A71900210B46032BDED8FA5CC8
:101ED000D800824011430133F7E73046F8BD10B512
:101EE0000C4614F8013B037100221346032B09D85A
:101EF00014F803C04FEAC30E0CFA0EFC42EA0C02BF
:101F00000133F3E7052306E003F1FF3C11F803E09A
:101F100001F80CE0013302F1050C9C45F4D8131DC7
:101F20000024CC5404318160501D10BD30B50B78B5
:101F300083804A7843EA0223838001F1020C002265
:101F40001346032B06D81CF80340DD00AC402243A7
:101F50000133F6E7062305E05C1E11F803C001F823
:101F600004C0013302F1060C9C45F5D8541D002332
:101F70000B554C1D846002F1060C8C449E46032BCD
:101F800007D81CF80340DD00AC404EEA040E0133D4
:101F9000F5E702F10A052B4605E003F1FF3CCC5CB6
:101FA00001F80C40013305EB0E0C9C45F5D80CF103
:101FB000FF3C002301F80C3009320A44C26075442A
:101FC00001EB050E1C46032B08D81EF803204FEA30
:101FD000C30C02FA0CF214430133F4E705F1040CCC
:101FE000634605E05A1E11F803E001F802E00133F0
:101FF0000CEB04029A42F5D8013A00238B540335C6
:102000000D440561A44411F80C300CF101028A5C06
:1020100043EA02230CF102028A5C43EA02430CF118
:1020200003028A5C43EA026343610CF1040030BDA1
:102030002DE9F04784B004460D461046632904DDBF
:1020400094F80037002B00F0A58003681B6804F2A9
:102050002B419847FF2384F82434FE2384F8253449
:10206000C3B284F82634C0F3072284F8272413442B
:10207000DBB2DB4384F8283484F8295445F3072580
:1020800084F82A5405230022811D994205DBE118BA
:1020900091F824140A440133F6E7C31D5142D2B229
:1020A000C9B258BF4A4200F10805D243234483F81D
:1020B0002424B5F5007F56DC261D04F2244AB5F52C
:1020C000807F22DD4FF48077D6F80802C0F5807853
:1020D000C146B845A8BFB94600F584704A46514686
:1020E0003044FEF715F8D6F808323B44DBB2C6F8A8
:1020F0000832B8450BDB636893F83D30DBB2202B28
:102100000ED0284604B0BDE8F0872F46DCE7A7EBE9
:1021100009020AEB090106F58470FDF7F9FFEAE709
:102120001D4B1B78002BECD11B4B01221A70D6F8EB
:102130000872D6F80C128F420ED011DD7F1A01F50D
:102140008471BAB23144606802F050FFD6F80C32A4
:102150003B44DBB2C6F80C320F4B00221A70D0E7BA
:10216000C1F58077EBE70D4B01930D4B01930023F5
:102170008DF808300B4B039303238DF808300A4B7E
:10218000039323681B6801AA0721204698474FF054
:10219000FF35B6E70025B4E7740A0020884C010833
:1021A000004D0108E04D0108504A010808B50346FA
:1021B0000846196799674FF4807203F17C0103F0B8
:1021C000A1F908BD2DE9F8430646DFF88881C0F87B
:1021D0000080614B0360002444600481C460048279
:1021E0004482848200F118075C4B8361C061846281
:1021F000C0F82C805A4BC36204638486846384874E
:10220000C487A0F84040A0F84240564A4264564A6B
:102210004264C0F8508003654465A0F85840C46526
:10222000A0F86040A0F86240A0F86440A0F86640C2
:102230004E4B83660123C3664D4BC3644D4B03670E
:1022400000F174054C4B43674C4B43676C60C5F819
:102250000841C5F80C42C5F81042C5F81442C5F84B
:102260001842C5F81C42C5F820424FF400794A468E
:10227000214600F526700BF0ABFD4A46214606F5D7
:1022800093600BF0A5FD4FF064094A46214606F520
:10229000D3600BF09DFD4A46214606F2FC600BF030
:1022A00097FDC5F8EC46C5F8F046C5F8F446C5F804
:1022B000F846C5F8FC4685F80047C5F80447C5F858
:1022C0000847C5F80C4785F81047C5F814872C4B0C
:1022D000C5F81437C5F81847C5F81C47C5F8204796
:1022E000C5F824470023C5F82837C5F82C47C5F89A
:1022F0003047C5F83447C5F8384786F8B047316FDE
:102300003046FFF753FF182C0FDC04F5C47305EBC0
:1023100083035B680BB10134F5E704F5C47305EB87
:1023200083035F607D34BC60FD6006F144010023DF
:10233000182B0CDC03F5D17255F822200AB10133B9
:10234000F6E703F5D17245F8221064334B6030464E
:10235000BDE8F883884C0108B84C01088C4A010894
:10236000A04C0108444D01085C4D0108A52C000853
:10237000984A010808470020304D0108744D0108B3
:10238000184D0108012800D0704708B54FF6FF73BB
:10239000994200D008BD0248FFF714FFFAE700BFDA
:1023A000780A002038B5036F8B4200D038BD00F1A9
:1023B0007804836F93F83D30DBB2202BF6D1114BBC
:1023C0001B78002BF2D10F4B01221A70D4F808525F
:1023D000D4F80C128D420ED011DD6D1A01F5847106
:1023E000AAB22144806F02F001FED4F80C322B44D3
:1023F000DBB2C4F80C32034B00221A70D6E7C1F5E9
:102400008075EBE7740A002008B501460148FFF724
:10241000C9FF08BD780A002008B5036F8B4200D0C1
:1024200008BD4FF4807200F17C01806F03F06AF800
:10243000F6E7000008B501460148FFF7EDFF08BDCB
:10244000780A0020F0B587B00446334B0093334B35
:1024500000930025ADF80450314B0293039304938D
:10246000059500E00135182D25DC05F5C47304EB56
:1024700083035B68002BF5D09A68ADF804201A68D6
:102480000292586803689B689847039005F5C476E4
:1024900004EB8606736858680368DB689847049005
:1024A0004FF400730593716823681B686A460969D5
:1024B00020469847D6E7002500E00135182D25DC99
:1024C00005F5D17354F823000028F6D04368ADF821
:1024D00004308368029303689B689847039005F56E
:1024E000D17654F826000368DB68984704904FF4CF
:1024F0000073059323681F6854F8260003685B681F
:10250000984701466A462046B847D6E7012384F833
:10251000003707B0F0BD00BF884C0108E84C010847
:10252000E04D01082DE9F04385B00446051D00F09B
:1025300083FF0646D4F80837C31A42F6F8229342BE
:1025400002D9002384F80037D4F8EC36DBB1D4F894
:102550000C37B34217D20023C4F8EC3613E04FF027
:10256000FF312DE0D4F8F8365A1CC4F8F82623447D
:1025700083F82412D4F8F036013BC4F8F03613B9CE
:102580000823C4F8EC36D4F820323BB100F054FFF5
:10259000801BD4F82032984200F26A81D5F80421D9
:1025A0002B689B6B1B685B685B42DBB29A42D6D0A0
:1025B000531CC5F804312A441179DBB2C5F8043143
:1025C0000029C0F23481D4F8FC260A44C4F8FC2661
:1025D000D4F8EC36072BC5D0B3B9FF2907D10133A6
:1025E000C4F8EC3606F11403C4F80C37CBE700F05E
:1025F00023FF801B41F288339842C4D9002384F81A
:1026000000376FF0010035E1012B2ED0022B4BD0AB
:10261000032B54D0042B5CD0052B69D0062B6FD034
:10262000082BB0D10023C4F8EC369B1AD2B2DBB22F
:1026300058BF5A42FF2AA6D1D4F8F436002B71D0E5
:102640000A2B00F08A80062B00F0E3800B2B00F0B1
:10265000EA8003F59F7354F82300002893D00368A1
:102660001B6804F5097198478DE7FE2918D00023EF
:10267000C4F8EC3694F80037002B84D1804B0193DA
:10268000804B019300230293039323681B6801AAE4
:102690000A212046984700F0CFFEC4F8140272E7E2
:1026A0000133C4F8EC366EE7C4F8F0160022C4F823
:1026B000F8260133C4F8EC36C4F8FC1663E7D4F806
:1026C000F02602EB0122C4F8F0260133C4F8EC3600
:1026D00059E75142D2B2C9B258BF4A42FF2A03D089
:1026E0000023C4F8EC364EE70133C4F8EC364AE771
:1026F000C4F8F4160133C4F8EC36C4F8FC1642E70B
:10270000D4F8F43603EB0123C4F8F4360723C4F8F5
:10271000EC36D4F8F036002B7FF435AF0823C4F83C
:10272000EC3630E7564B0193564B0193002302934E
:10273000039323681B6801AA0A212046984700F0EA
:102740007BFEC4F814022046FFF77CFEC4F8046741
:10275000C4F808674FF0FF308CE004F50977484B68
:102760000193484B019300230293039300F064FE0E
:10277000D4F81432C01A94F82422029239467B7895
:1027800042EA03220292BB7842EA03420292FB78B9
:1027900042EA036202923B7903937F7943EA07237B
:1027A00003938F7943EA07430393C97943EA0163AB
:1027B0000393354FA7FB00C14FEA911C02EB911226
:1027C00002924FF47A7808FB1C00DFF8C09009FBF6
:1027D0000033039300F030FEA7FB0027B909029AEB
:1027E000A2EB9712013AC4F8182208FB1103039ACE
:1027F00009FB1322264B1344C4F81C3204F507715D
:1028000004F5067000F06CF800F016FEC4F8080736
:10281000B9E604F5097104F21470FFF7BCFA01235C
:1028200084F81037AFE6002384F80037ABE694F85D
:10283000003713B3D4F80437F31A40F6C4129342A6
:1028400001D8002016E00E4B01930E4B019300259A
:102850000295039523681B6801AA0A212046984720
:1028600000F0EAFDC4F81402C4F80467284601E049
:102870006FF0010005B0BDE8F0830020FAE700BF6B
:10288000884C0108D04C0108D34D621040420F0023
:1028900000CA9A3B38B5044690F8B03723B104F12A
:1028A0007400FFF73FFE38BD4FF4807200F17C01E9
:1028B000806F02F027FE0023C4F86037C4F8643745
:1028C000C4F86C37C4F86837012384F8B037E6E7FA
:1028D00008B54FF6FF710120FFF754FD08BD000059
:1028E00030B40C68630A074AA2FB0323DA09064DD9
:1028F00005FB1242046804EBD31303600A6030BC8A
:10290000704700BF834B040000CA9A3B01707047B8
:102910008160C2607047000038B5044600254560FC
:10292000FFF7F4FF034A29462046FFF7F1FF204650
:1029300038BD00BFAE42050008B5043000F059F8BC
:1029400008BD08B51430FFF7E1FF08BD08B5083031
:1029500000F06BF808BD70B5044615461E46FFF73B
:10296000EBFF31462046FFF7ECFF29462046FFF7F4
:10297000EDFF70BD2DE9F04104460D4616461F4699
:102980000021043000F037F804F108080021404627
:1029900000F04DF8002104F11400FFF7BDFF3B46A5
:1029A000324629462046FFF7D6FF9DF818302360AF
:1029B00000216162A162E1622163404600F043F8B8
:1029C0002046BDE8F08108B5043000F025F808BDC8
:1029D00008B5043000F017F808BD08B5012108302B
:1029E00000F031F808BD08B50021083000F02BF8E0
:1029F00008BD0170704710B5044600234380FFF7FF
:102A0000F8FF204610BD10B5044600210078FEF7FF
:102A100065FE0123638010BD10B5044600210078D7
:102A2000FEF75CFE0023638010BD0170704710B597
:102A300004460022828001234380C2800381FFF785
:102A4000F4FF204610BD10B50346418089B2C1F1A4
:102A5000010108B298801C78FEF7FCF90146204677
:102A6000FEF73CFE10BD0000012800D0704708B5FD
:102A70004FF6FF73994200D008BD0248FEF74EFEA4
:102A8000FAE700BF5C12002010B584B003F0D4FA5E
:102A900003F00CFBFEF780FD114C12492046FEF7B7
:102AA00071FE114B5A7819782046FEF791FE0F4BB4
:102AB0005A7802920E4A127801920E4A12780092C7
:102AC0001B780D4A12780D4909782046FEF78BFED7
:102AD0000B4B0C4ADA6008225A6004B010BD00BFEC
:102AE0005C1200201C0000201000002004000020C8
:102AF0000300002002000020010000200000002050
:102B0000780A00204C12002010B55D4B1B88002B6A
:102B100035D05B4B5B88002B6DD05A48FEF7A9FE81
:102B2000574B9B88002B6AD05648FEF7AEFE544B9D
:102B30005B89002B67D05448FFF74FFF504B9B89B0
:102B4000002B64D05148FFF748FF4D4BDB881BB981
:102B50004B4A1289002A5ED01BB9494A1289002AC1
:102B60005ED11BB1464A1289002A5FD0FBB1444BAB
:102B70001B89E3B102214348FEF746FE17E0444BB0
:102B80001B6843B3404C2046FFF727FF2046FFF762
:102B90001FFF404B1B6833B33C4C2046FFF71DFF23
:102BA0002046FFF715FF3C493648FEF746FE354CF8
:102BB000334BB3F90E1004F53470FEF763FDB4F92E
:102BC0001223364B1A82B4F946235A82B4F90823E9
:102BD0009A82002145E02C4C2046FFF7F4FE204667
:102BE000FFF701FFD5E7294C2046FFF7ECFE204612
:102BF000FFF7F9FED7E72348FEF741FE90E72148AB
:102C0000FEF749FE93E72048FFF7EDFE96E71F48E1
:102C1000FFF7E9FE99E700211A48FEF7F5FDC6E740
:102C20004FF0FF311748FEF7EFFDC0E701211548CF
:102C3000FEF7EAFDBBE7194AD46803EB810EC3EB4C
:102C400003108200C1EB011C4FEA0C1002440D4836
:102C50000244B2F9382024F81E200133032BEADDA8
:102C60000131012901DC0023F8E70C4C606A03689C
:102C70001B682246216A98472046FFF70BFE10BDCD
:102C80003C1200205C120020681500209C150020DA
:102C900018000020140000202C120020780A0020C8
:102CA00070470000002306E0C26832F91310144A8E
:102CB00022F813100133072BF6DDB0F91020114B69
:102CC0001A60B0F91220104B1A60C38A03F0010198
:102CD0000E4A1180C3F380015180C3F340019180FB
:102CE000C3F30011D180C3F3C0011181C3F34011BC
:102CF0005181C3F380139381B0F91430D3817047AD
:102D00002C12002018000020140000203C1200208B
:102D100008B54FF6FF710120FFF7A6FE08BD0000C1
:102D200008B50B480B4B03601023436000238360FE
:102D3000C36003614361037643768376C37603778A
:102D4000437700F07FFB00B908BDFEF7D9FBFBE736
:102D5000D01500200064004010B586B00023029317
:102D60000393049305930268164B9A4201D006B070
:102D700010BD03F5D633DA6942F00072DA61DA6920
:102D800002F000720092009A9A6942F004029A617D
:102D90009B6903F004030193019B4FF400630293CA
:102DA000094C02A9204600F0B7FE4FF4805302936D
:102DB000022303930323059302A9204600F0ACFEEF
:102DC000D5E700BF006400400008014008B5054891
:102DD000054B036000F0FAFC00B908BDFEF790FB5C
:102DE000FBE700BFF8150020003002400268094BE5
:102DF0009A4200D0704782B0A3F500535A6942F05E
:102E000040025A615B6903F040030193019B02B0E9
:102E1000704700BF0030024000B583B00E4B5A69C6
:102E200042F001025A615B6903F001030193019BC7
:102E3000002205210E2000F083FC0E2000F0B8FCDB
:102E4000002205210F2000F07BFC0F2000F0B0FCD9
:102E500003B05DF804FB00BF0010024000B583B072
:102E600002F038FF019008E0084B00221A60FFF7DB
:102E70004BFE012101A803F03BF8044A136801331B
:102E80001360034A12689342EEDAF2E78C2A0020BC
:102E90000C00002000B583B002F01CFF019008E098
:102EA000084B00221A60FFF7FBFE012101A803F086
:102EB0001FF8044A136801331360034A12689342EF
:102EC000EEDAF2E7882A002008000020034B0360B6
:102ED000034B0B6080231360704700BF1841002034
:102EE000143F002010B58EB0124C0DF11C0CA646FC
:102EF000BEE80F00ACE80F009EE807008CE8070072
:102F0000002107A802F025FB0B4B1860EE4604F1E8
:102F10001C0CBCE80F00AEE80F009CE807008EE830
:102F200007000021684602F014FB044B18600EB045
:102F300010BD00BFC8480108103F00200016002047
:102F400030B587B000240294039404940594194B7F
:102F50009A6942F008029A619A6902F008020092A6
:102F6000009A9A6942F004029A619B6903F0040393
:102F70000193019B104D22464FF40051284600F06A
:102F8000DDFE4FF4005302930123039304940223C4
:102F9000059302A9284600F0BFFD4FF400430293B9
:102FA000064B0393049402A9054800F0B5FD07B051
:102FB00030BD00BF00100240000C014000001110A5
:102FC0000008014008B50B480B4B03600B4B4360F6
:102FD00000238360C3604FF48042026143618361D8
:102FE000C361036201F01CF800B908BDFEF788FA5E
:102FF000FBE700BF9845002000580040A086010074
:1030000010B586B0002302930393049305930268DE
:10301000114B9A4201D006B010BD104CA36943F089
:103020000803A361A36903F008030093009B4FF416
:1030300040630293122303930323059302A90848D4
:1030400000F06AFDE36943F48003E361E36903F49C
:1030500080030193019BDEE700580040001002400E
:10306000000C014000B583B0114B9A6942F0010297
:103070009A619A6902F001020092009ADA6942F0BC
:103080008052DA61DB6903F080530193019B0022D7
:103090000F216FF0010000F053FB064A536823F044
:1030A000E06343F00073536003B05DF804FB00BFBE
:1030B000001002400000014000B589B00146002226
:1030C000192000F03DFB192000F072FB144B9A69A7
:1030D00042F400629A619B6903F400630193019BCF
:1030E00002A903A801F05CFC01F04AFC0D4BA3FB14
:1030F00000239B0C013B0C480C4A026040F2E73273
:10310000C260436000230361836001F0C5FD18B114
:10311000012009B05DF804FB034801F08DFCF8E7DD
:103120000010024083DE1B43EC450020002C0140D0
:10313000FEE7FEE7FEE7FEE7FEE7704708B5024858
:1031400000F048FC08BD00BFC446002008B5024896
:1031500000F040FC08BD00BF8046002008B50248D2
:1031600001F0A2FC08BD00BFEC45002008B50248F4
:1031700002F04EF808BD00BF08470020012070474C
:1031800008B509F0E7FF162303604FF0FF3008BDD4
:1031900008B54FF0FF31FFF7F3FFFEE770B50C46BF
:1031A0001646002506E0AFF30080214601F8010B2A
:1031B00001350C46B542F6DB304670BD70B50C46A5
:1031C0001646002504E014F8010BAFF3008001352A
:1031D000B542F8DB304670BD4FF0FF3070474FF41A
:1031E00000534B600020704701207047002070475B
:1031F00010B503460C4A0D490D48006840B10C4813
:1032000000680344521A934206D8094A136010BD5D
:103210000748084C0460F2E709F09CFF0C230360A8
:103220004FF0FF30F3E700BF005000200004000023
:1032300034460020F04800207047000000B587B0F9
:10324000002302930393049305930093019315487D
:103250004FF080420260436083604FF6FF72C260AD
:103260000361836101F018FD90B94FF4805302931C
:1032700002A90C4801F048FD68B9002300930193AE
:103280006946084801F0AEFD40B907B05DF804FB9F
:10329000FEF736F9E9E7FEF733F9EEE7FEF730F926
:1032A000F3E700BF384600200368B3F1804F00D039
:1032B000704782B003F50433DA6942F00102DA6143
:1032C000DB6903F001030193019B02B0704700002A
:1032D00008B50A480A4B03604FF4E133436000230A
:1032E0008360C36003610C2242618361C36101F0AA
:1032F0004DFE00B908BDFEF703F9FBE708470020C3
:103300000038014070B586B0002302930393049304
:1033100005930268334B9A4201D006B070BD044653
:1033200003F558439A6942F480429A619A6902F41B
:1033300080420092009A9A6942F004029A619B6965
:1033400003F004030193019B4FF4007302930223E3
:10335000039303230593244E02A9304600F0DCFBBF
:103360004FF48063029300250395049502A930462B
:1033700000F0D2FB1D481E4B036045608560802332
:10338000C3600561456185614FF48053C36100F0FE
:1033900043FA00BB154BA3635C621648164B0360EF
:1033A00010234360002383608022C2600361436175
:1033B00083614FF48053C36100F02EFA70B90D4B56
:1033C00063635C6200220521252000F0B9F9252005
:1033D00000F0EEF9A1E7FEF793F8DBE7FEF790F8CF
:1033E000EDE700BF003801400008014080460020A2
:1033F00058000240C44600204400024008B5074A75
:10340000136843F010031360032000F087F90F20C6
:10341000FFF752FEFFF726FE002008BD0020024005
:10342000034A1168034B1B780B441360704700BFBD
:103430004C47002030000020014B1868704700BF47
:103440004C470020002800F0A18038B5044690F8D1
:103450002030D3B12268136843F001031360FFF7F3
:10346000EBFF054623685A6812F0010F10D1FFF7F1
:10347000E3FF401B0A28F5D9636A43F40033636213
:10348000052384F82030012038BDFFF765FCE1E713
:103490001A6822F002021A60FFF7CEFF0546236881
:1034A0005A6812F0020F0DD0FFF7C6FF401B0A2822
:1034B000F5D9636A43F400336362052384F820304E
:1034C0000120E1E7227E012A3DD01A6822F0800225
:1034D0001A60637E012B3BD02268136823F04003FF
:1034E0001360A37E012B39D02268136823F02003D8
:1034F0001360E37E012B37D02268136843F010037A
:103500001360237F012B35D02268136823F0080352
:103510001360637F012B33D02268136823F0040308
:103520001360A368E268134322691343626913437B
:103530006268013A21681343CB6100206062012375
:1035400084F82030A0E71A6842F080021A60C0E7D1
:103550002268136843F040031360C2E722681368CF
:1035600043F020031360C4E72268136823F01003BC
:103570001360C6E72268136843F008031360C8E7C6
:103580002268136843F004031360CAE70120704700
:10359000026890F82030013BDBB2012B05D9436A69
:1035A00043F4802343620120704710B5D2F8003203
:1035B00043F00103C2F800324B6903F01F030120FE
:1035C00000FA03F3D2F81C026FEA030C20EA0300AE
:1035D000C2F81C02C869C0B9D2F80C020CEA00009B
:1035E000C2F80C028C884869D1F80CE044EA0E4419
:1035F000483042F830400C884869D1F808E044EA85
:103600000E44483002EBC0004460C86901281AD05B
:10361000886988BBD2F804020CEA0000C2F80402F0
:10362000086978BBD2F814020CEA0000C2F8140250
:10363000096A01292CD0D2F8003223F00103C2F824
:103640000032002010BDD2F80C021843C2F80C0260
:103650008C884869D1F800E044EA0E44483042F8CA
:1036600030408C894869D1F808E044EA0E4448307B
:1036700002EBC0004460CBE7D2F804021843C2F862
:103680000402CDE7D2F814021843C2F81402CFE7BF
:10369000D2F81C120B43C2F81C32CCE770B50446BA
:1036A00090F82050EDB2012D06D0436A43F4002378
:1036B00043620125284670BD022380F8203002684D
:1036C000136823F001031360FFF7B6FE0646236874
:1036D0005B6813F0010F0CD0FFF7AEFE831B0A2BC3
:1036E000F5D9636A43F400336362052384F820301C
:1036F000E0E700256562DDE790F82030013BDBB2B2
:10370000012B05D9436A43F48023436201207047AB
:10371000026853691943516100207047074AD36812
:1037200023F4E0631B041B0C000200F4E06003437D
:1037300043F0BF6343F40033D360704700ED00E013
:1037400000B5194BDB68C3F30223C3F1070CBCF1CE
:10375000040F28BF4FF0040C03F1040EBEF1060F56
:1037600018D9033B4FF0FF3E0EFA0CFC21EA0C0186
:1037700099400EFA03F322EA0303194300280BDBF6
:103780000901C9B200F1604000F5614080F8001302
:103790005DF804FB0023E5E700F00F000901C9B262
:1037A000024B1954F4E700BF00ED00E014ED00E017
:1037B000002807DB00F01F02400901239340024A62
:1037C00042F82030704700BF00E100E058B110B56A
:1037D000044643791BB101236371002010BD0371BE
:1037E000FFF704FBF7E70120704730B40124056CB4
:1037F000AC40C56B6C60046863604368102B05D0F7
:10380000036899600368DA6030BC704703689A60A7
:103810000368D960F8E7000060B310B4024601689D
:10382000154B0B441548A0FB03031B099B001364B5
:10383000134BD363022382F82130086820F47F50B1
:1038400020F03000536894682343D46823431469FC
:1038500023435469234394692343D4692343034393
:103860000B6000209063012382F8213082F8200051
:1038700010BC704701207047F8FFFDBFCDCCCCCC09
:103880000000024038B5044690F82000012831D0ED
:10389000012084F8200094F82100012804D000239E
:1038A00084F82030022038BD022084F82100002056
:1038B000A0632568286820F0010028602046FFF7F3
:1038C00094FFE36A5BB12268136843F00E03136050
:1038D0002268136843F0010313600020E3E72268C5
:1038E000136823F0040313602268136843F00A038B
:1038F0001360EDE70220D6E790F82130022B06D0C6
:1039000004238363002380F820300120704702687D
:10391000136823F00E0313600268136823F0010399
:103920001360036CC16B012202FA03F34B6080F851
:103930002120002380F820301846704708B590F801
:103940002130022B03D004238363012008BD0268C9
:10395000136823F00E0313600268136823F0010359
:1039600013600368194A934214D0143293421FD053
:10397000143293421ED0143293421ED0143293421A
:103980001ED01432934202D04FF0807203E04FF405
:10399000801200E001220E4B5A60012380F8213092
:1039A000002380F82030436B6BB198470020CDE7AF
:1039B0001022F0E74FF48072EDE74FF48052EAE70F
:1039C0004FF48032E7E70020C0E700BF0800024064
:1039D0000000024038B5C36B1A6804682568016CA2
:1039E00004238B40134235D015F0040F32D02368E6
:1039F00013F0200F03D1236823F00403236003682E
:103A0000434A934214D01432934218D01432934252
:103A100017D01432934217D01432934217D0143275
:103A2000934202D04FF0806203E04FF4800200E046
:103A30000422384B5A60C36A03B1984738BD40220C
:103A4000F7E74FF48062F4E74FF48042F1E74FF478
:103A50008022EEE702238B4013423CD015F0020F88
:103A600039D0236813F0200F06D1236823F00A030E
:103A70002360012380F821300368254A934214D043
:103A8000143293421CD0143293421BD0143293420E
:103A90001BD0143293421BD01432934202D04FF009
:103AA000007203E04FF4001200E00222194B5A604A
:103AB000002380F82030836A002BBFD09847BDE7F1
:103AC0002022F3E74FF40072F0E74FF40052EDE7E5
:103AD0004FF40032EAE7082303FA01F11142ADD0B6
:103AE00015F0080FAAD0236823F00E032360026CA0
:103AF000C16B012303FA02F24A60836380F821302C
:103B0000002380F82030036B002B97D0984795E76F
:103B1000080002400000024070B582B00024A446B4
:103B2000A6E0804DAA4210D007D97F4DAA420CD002
:103B300005F58035AA4208D013E0A5F58015AA4204
:103B400003D005F57025AA4207D18A68002A58D00B
:103B5000012A51D04361082403E0A5F58015AA424B
:103B6000F3D0BEF1FF0F4ED80646BEF1FF0F4CD882
:103B70004FEA8C0233680F25954023EA050304FAC7
:103B800002F2134333604B6813F0805F6ED0674BD3
:103B90009A6942F001029A619B6903F00103019363
:103BA000019B4FEA9C02951C614B53F825600CF079
:103BB00003039D000F23AB4026EA03065D4B9842AA
:103BC00029D003F58063984200F08E8003F580636E
:103BD000984200F08B8003F58063984219D004234B
:103BE0001AE0CC68BDE7CC680434BAE7CC68083486
:103BF000B7E7CC680C34B4E703610824B1E70024CC
:103C0000AFE70424ADE7061DAFE7ACF10802920070
:103C1000B0E7032300E00023AB4033430232444DBE
:103C200045F822304B6813F4803F61D0424A136854
:103C300043EA0E0313604B6813F4003F5ED03E4A24
:103C4000536843EA0E0353604B6813F4801F5BD044
:103C5000394A936843EA0E0393604B6813F4001FDC
:103C600058D0354AD36843EA0E03D3600CF1010CF7
:103C70000A6832FA0CF353D0012303FA0CF302EA78
:103C8000030E33EA0202F1D14A68122A3FF649AF25
:103C9000122A3FF666AF01A555F822F04B3B00080B
:103CA000E33B0008ED3B0008FF3B0008633B0008D6
:103CB000633B0008633B0008633B0008633B00086C
:103CC000633B0008633B0008633B0008633B00085C
:103CD000633B0008633B0008633B0008633B00084C
:103CE000E73B0008F33B0008012395E7022393E735
:103CF000114A136823EA0E0313609CE70E4A5368C7
:103D000023EA0E0353609FE70B4A936823EA0E03EE
:103D10009360A2E7084AD36823EA0E03D360A5E7BD
:103D200002B070BD000022100000311000100240EF
:103D30000000014000080140000401400AB1016197
:103D4000704709040161704703685A6912F4806F73
:103D500001D1002070476FF480625A610023036331
:103D6000202280F83D2080F83E30026C42F00402B0
:103D7000026480F83C30012070472DE9F04107468D
:103D80000D4690461E4624E0FFF756FB069BC01AE0
:103D9000B04200D8EEB900233B63202287F83D20D3
:103DA00087F83E303A6C42F020023A6487F83C30A3
:103DB00001201EE03B689C6925EA040C1FFA8CFC7C
:103DC000BCFA8CFC4FEA5C1CE04511D1B6F1FF3F18
:103DD000DAD1C5F30743012BECD13B685B6925EAD7
:103DE000030C1FFA8CFCBCFA8CFC4FEA5C1CEBE762
:103DF0000020BDE8F0812DE9F04105460E4617464A
:103E000098463DE01A6842F400721A602B686FF41D
:103E100080625A6100232B63202285F83D2085F8BB
:103E20003E302A6C42F004022A6485F83C300120BE
:103E300034E0FFF701FBA0EB0800B84200D8FFB95F
:103E400000232B63202285F83D2085F83E302A6C24
:103E500042F020022A6485F83C3001201EE02B68E5
:103E60009C6926EA0404A4B2003C18BF0124A4B152
:103E70002B685A6912F4806FC4D1B7F1FF3FD8D1D3
:103E8000C6F30743012BEAD12B685C6926EA0404D8
:103E9000A4B2003C18BF0124E9E70020BDE8F0818E
:103EA00070B504460D46164623685B6913F0800F13
:103EB0001CD12046FFF748FFD0B9B5F1FF3FF3D042
:103EC000FFF7BAFA801BA84201D8002DECD10023DD
:103ED0002363202284F83D2084F83E30226C42F097
:103EE0002002226484F83C30012000E0002070BDF4
:103EF0000120FCE72DE9F04385B004460D469146CC
:103F00001F46DDF830800D9E0368196841F480710A
:103F100019600096434600224FF00111FFF72DFF74
:103F200060B9236805F0FE051D6133464246264907
:103F30002046FFF760FF68B1012008E023681B6896
:103F400013F4807F02D04FF400732364032005B084
:103F5000BDE8F0830023039323685A6903929B69A9
:103F60000393039B324641462046FFF799FF30B941
:103F7000012F0FD123685FFA89F61E61E7E7236CF2
:103F8000042B01D00120E2E72268136843F4007398
:103F90001360F7E723684FEA19221A613246414657
:103FA0002046FFF77DFF20B923685FFA89F61E617E
:103FB000CDE7236C042B01D00120C8E722681368E9
:103FC00043F400731360F7E70200010070B5044684
:103FD0000D46164623685B6913F0040F1CD120467A
:103FE000FFF7B2FED0B9B5F1FF3FF3D0FFF724FAE7
:103FF000801BA84201D8002DECD10023236320228E
:1040000084F83D2084F83E30226C42F02002226485
:1040100084F83C30012000E0002070BD0120FCE766
:10402000002800F0CC8070B5044690F83D30002B9D
:1040300077D0242384F83D302268136823F00103ED
:1040400013602268136843F4004313602268136806
:1040500023F40043136000F083FC62685A4B9A42D9
:1040600064D85A4B98428CBF00230123002B40F0A8
:10407000A8805749A1FB00318B0C25686A6822F0A3
:104080003F0242EA91426A6021680A6A22F03F02D6
:1040900066684D4DAE424FD8013313430B62216821
:1040A000CA6922F44F4222F0FF026668464B9E42E4
:1040B0004CD8431E7600B3FBF6F3013340F6FC7098
:1040C000034278D0C3F30B031343CB6121680B6821
:1040D00023F0C003E269206A024313430B602168A6
:1040E0008B6823F4034323F0FF032269E068024353
:1040F00013438B602168CB6823F0FF036269A069DA
:1041000002431343CB602268136843F0010313603A
:1041100000202064202384F83D30206384F83E0092
:1041200070BD80F83C30FEF76BFF82E7294B984268
:104130008CBF0023012399E74FF4967505FB03F329
:10414000254DA5FB03539B090133A6E7A368BBB923
:10415000451E06EB460CB5FBFCF50135C5F30B051A
:10416000B5FA85F56D0945BBC3B9013806EB4603C1
:10417000B0FBF3F30133C3F30B0343F40043A3E7B2
:10418000451E06EB860C0CEB8C0CB5FBFCF50135E3
:10419000C5F30B05B5FA85F56D09E4E7013806EBC3
:1041A000860303EB8303B0FBF3F30133C3F30B0389
:1041B00043F4404388E7042386E7012384E7012092
:1041C00070470120ACE700BFA08601007F841E007D
:1041D00083DE1B43FF083D00D34D62102DE9F04301
:1041E00083B004460F46904699460C9EFFF724F98B
:1041F000054694F83D00C0B2202803D0022003B049
:10420000BDE8F0830095192301224B492046FFF7B2
:10421000B4FD002840F0898094F83C30012B00F078
:104220008680012384F83C3023681A6812F0010F5D
:1042300003D11A6842F001021A602268136823F45D
:1042400000631360212384F83D30402384F83E301E
:10425000002323640A9B6362BDF82C306385638D61
:104260002385364BE362019500964B46424639461C
:104270002046FFF73FFE00285BD1238D002B35D071
:104280002A4631462046FFF70BFE20BB626A2368B0
:1042900012781A61626A531C6362218D013989B2F6
:1042A0002185638D9BB2013B9BB26385236858696E
:1042B00010F0040FE1D00029DFD052781A61636A50
:1042C00001336362238D013B2385638D9BB2013BE8
:1042D0009BB26385D1E7236C042B01D001208EE7CC
:1042E0002268136843F400731360F7E72A463146E7
:1042F0002046FFF76BFE50B1236C042B01D0012048
:104300007DE72268136843F400731360F7E72268BF
:10431000136843F400731360202384F83D300023B6
:1043200084F83E3084F83C3069E7022067E70220D9
:1043300065E7012063E700BF020010000000FFFFF7
:1043400082B0084B1B68084AA2FB03235B0A00FBF0
:1043500003F3019300BF019B5A1E0192002BF9D178
:1043600002B070472C000020D34D6210002800F0EE
:10437000F18170B582B00446036813F0010F2CD0B0
:10438000994B5B6803F00C03042B1DD0964B5B68C4
:1043900003F00C03082B12D06368B3F5803F41D0C3
:1043A000002B55D103F1804303F504331A6822F43E
:1043B00080321A601A6822F480221A6037E08A4B31
:1043C0005B6813F4803FE7D0874B1B6813F4003F12
:1043D00003D06368002B00F0BF81236813F0020F45
:1043E00075D0814B5B6813F00C0F5FD07E4B5B6820
:1043F00003F00C03082B54D02369002B00F08A80B3
:104400007A4B01221A60FFF717F80546764B1B68B6
:1044100013F0020F75D1FFF70FF8401B0228F5D9F2
:1044200003209EE1704A136843F48033136063688D
:1044300043B3FFF701F805466B4B1B6813F4003FCD
:10444000CBD1FEF7F9FF401B6428F5D9032088E1A2
:10445000B3F5A02F09D0644B1A6822F480321A6099
:104460001A6822F480221A60E1E703F18043A3F581
:104470003C331A6842F480221A601A6842F480328F
:104480001A60D4E7FEF7D8FF0546574B1B6813F4B4
:10449000003FA2D0FEF7D0FF401B6428F5D90320CF
:1044A0005FE1514B5B6813F4803FA5D14E4B1B6815
:1044B00013F0020F03D02369012B40F04F814A4AC9
:1044C000136823F0F803616943EAC10313602368AA
:1044D00013F0080F33D0A369002B5CD0434B0122AB
:1044E000C3F88024FEF7A8FF05463F4B5B6A13F034
:1044F000020F21D1FEF7A0FF401B0228F5D90320AF
:104500002FE1394A136823F0F803616943EAC103D4
:104510001360DCE7354B00221A60FEF78DFF05467D
:10452000314B1B6813F0020FD1D0FEF785FF401B03
:104530000228F5D9032014E10120FFF701FF2368C9
:1045400013F0040F00F09680274BDB6913F0805FB7
:1045500034D1254BDA6942F08052DA61DB6903F02D
:1045600080530193019B0125214B1B6813F4807F2D
:1045700026D0E368012B3DD0002B53D103F18043BB
:1045800003F504331A6A22F001021A621A6A22F051
:1045900004021A6233E0154B0022C3F88024FEF7B0
:1045A0004BFF0546104B5B6A13F0020FC7D0FEF7B6
:1045B00043FF401B0228F5D90320D2E00025D3E7B2
:1045C0000B4A136843F480731360FEF735FF064609
:1045D000074B1B6813F4807FCBD1FEF72DFF801BA8
:1045E0006428F5D90320BCE00010024000004242DC
:1045F000007000405F4A136A43F001031362E368EE
:1046000033B3FEF719FF06465A4B1B6A13F0020F2D
:104610002FD1FEF711FF801B41F288339842F3D966
:1046200003209EE0052B09D0524B1A6A22F00102AA
:104630001A621A6A22F004021A62E0E74D4B1A6A03
:1046400042F004021A621A6A42F001021A62D6E7C4
:10465000FEF7F2FE0646474B1B6A13F0020F08D026
:10466000FEF7EAFE801B41F288339842F3D903201B
:1046700077E0E5B9E369002B72D03E4A526802F058
:104680000C02082A56D0022B17D03B4B00221A6688
:10469000FEF7D2FE0446374B1B6813F0007F47D06D
:1046A000FEF7CAFE001B0228F5D9032059E0314A63
:1046B000D36923F08053D361DCE72F4B00221A66C5
:1046C000FEF7BAFE05462B4B1B6813F0007F06D0A1
:1046D000FEF7B2FE401B0228F5D9032041E0236A11
:1046E000B3F5803F1AD023494B6823F47413226A30
:1046F000606A024313434B601F4B01221A66FEF7A8
:104700009BFE04461B4B1B6813F0007F0ED1FEF787
:1047100093FE001B0228F5D9032022E0154A5368B6
:1047200023F40033A1680B435360DCE7002018E05A
:10473000002016E0012B16D00E4B5B6803F480318D
:10474000226A914211D103F47013626A93420ED12E
:10475000002006E001207047012002E0012000E077
:10476000002002B070BD0120FBE70120F9E7012025
:10477000F7E700BF001002400000424286B0164B2F
:104780000FCB0DF1180C0CE90F0040F20123ADF82E
:104790000430124B5B6803F00C02082A02D0104868
:1047A00006B07047C3F38342624412F8100C13F44E
:1047B000803F0CD0094B5B68C3F34043634413F85C
:1047C000143C074A02FB00F0B0FBF3F0E8E7054BAE
:1047D00003FB00F0E4E700BFD04D010800100240E9
:1047E00000127A0000093D00002800F0A08070B59A
:1047F0000D460446524B1B6803F007038B420BD255
:104800004F4A136823F007030B431360136803F048
:1048100007038B4240F08D80236813F0020F17D0FE
:1048200013F0040F04D0474A536843F4E063536025
:10483000236813F0080F04D0424A536843F46053CE
:104840005360404A536823F0F003A1680B43536060
:10485000236813F0010F31D06368012B20D0022BA5
:1048600025D0384A126812F0020F64D035494A68E0
:1048700022F0030213434B60FEF7DEFD0646314B88
:104880005B6803F00C036268B3EB820F16D0FEF78F
:10489000D3FD801B41F288339842F0D9032045E0D4
:1048A000284A126812F4003FE0D101203EE0254A78
:1048B000126812F0007FD9D1012037E0204B1B682D
:1048C00003F00703AB420AD91D4A136823F007031C
:1048D0002B431360136803F00703AB422DD1236809
:1048E00013F0040F06D0174A536823F4E063E1681D
:1048F0000B435360236813F0080F07D0114A536825
:1049000023F46053216943EAC1035360FFF736FF84
:104910000C4B5B68C3F303130B4AD35CD8400B4BBF
:1049200018600B4B1868FEF7C7FB002070BD012014
:1049300070470120FAE70120F8E70120F6E700BF01
:104940000020024000100240B84D01082C00002059
:1049500034000020014B1868704700BF2C00002075
:1049600008B5FFF7F7FF044B5B68C3F30223034A64
:10497000D35CD84008BD00BF00100240C84D0108FC
:1049800008B5FFF7E7FF044B5B68C3F3C223034A94
:10499000D35CD84008BD00BF00100240C84D0108DC
:1049A0000F2303600B4B5A6802F0030242605A68FF
:1049B00002F0F00282605A6802F4E062C2605B6852
:1049C000DB0803F4E0630361034B1B6803F0070398
:1049D0000B607047001002400020024010B4036AD0
:1049E000046A24F001040462846924F0F00C4CEAA7
:1049F000021223F00A030B438261036210BC70476A
:104A000010B4046A24F0100404628469036A24F474
:104A1000704C4CEA023223F0A00343EA0113826196
:104A2000036210BC7047836823F070030B4343F0AC
:104A3000070383607047000090F83D30DBB2012B24
:104A400027D1022380F83D300268D36843F0010388
:104A5000D3600368114A934210D0B3F1804F0DD058
:104A6000A2F59432934209D002F58062934205D0B8
:104A70001A6842F001021A60002070479A6802F03A
:104A80000702062A07D01A6842F001021A600020C5
:104A90007047012070470020704700BF002C014084
:104AA000704770477047704710B5044603681A692D
:104AB00012F0020F11D0DA6812F0020F0DD06FF071
:104AC00002021A610123037703689B6913F0030F45
:104AD00070D0FFF7E6FF0023237723681A6912F0EE
:104AE000040F12D0DA6812F0040F0ED06FF0040237
:104AF0001A610223237723689B6913F4407F5FD0F8
:104B00002046FFF7CEFF0023237723681A6912F0AF
:104B1000080F12D0DA6812F0080F0ED06FF00802FA
:104B20001A61042323772368DB6913F0030F4ED047
:104B30002046FFF7B6FF0023237723681A6912F097
:104B4000100F12D0DA6812F0100F0ED06FF01002B2
:104B50001A61082323772368DB6913F4407F3DD073
:104B60002046FFF79EFF0023237723681A6912F07F
:104B7000010F03D0DA6812F0010F36D123681A69E9
:104B800012F0800F03D0DA6812F0800F34D123685E
:104B90001A6912F0400F03D0DA6812F0400F32D1D8
:104BA00023681A6912F0200F03D0DA6812F0200F80
:104BB00030D110BDFFF774FF2046FFF773FF8AE77F
:104BC0002046FFF76DFF2046FFF76CFF9BE720466E
:104BD000FFF766FF2046FFF765FFACE72046FFF7CB
:104BE0005FFF2046FFF75EFFBDE76FF001021A612D
:104BF0002046FCF779FCC1E76FF080021A6120467D
:104C000000F027F9C3E76FF040021A612046FFF772
:104C10004AFFC5E76FF020021A61204600F018F93C
:104C2000C7E7000003681B4A90420AD0B0F1804FEA
:104C300007D0A2F59432904203D002F580629042F0
:104C400003D123F070034A681343124A90420AD0FA
:104C5000B0F1804F07D0A2F59432904203D002F514
:104C60008062904203D123F44073CA68134323F057
:104C700080034A69134303608B68C3620B688362D5
:104C8000044B984202D00123436170470B690363D0
:104C9000F9E700BF002C014040B310B5044690F87E
:104CA0003D30F3B1022384F83D30214651F8040B26
:104CB000FFF7B8FF012384F8463084F83E3084F8CB
:104CC0003F3084F8403084F8413084F8423084F832
:104CD000433084F8443084F8453084F83D30002077
:104CE00010BD80F83C30FEF7DFFADBE701207047AB
:104CF00010B4846824F47F4C42EA03220A4342EA57
:104D00000C02826010BC704790F83C30012B66D0DA
:104D100010B50446012380F83C30022380F83D3072
:104D20000268936823F47F4323F0770393600B6852
:104D3000602B40D022D8402B47D00BD9502B0ED11E
:104D4000CA6849680068FFF749FE50212068FFF7EC
:104D50006AFE04E0202B0CD008D9302B09D00123A7
:104D600084F83D30002084F83C0010BD0BB1102BBE
:104D7000F5D119462068FFF756FEF0E7702B0ED0EC
:104D8000B3F5005FEBD1CB684A6889680068FFF72C
:104D9000AFFF2268936843F480439360DFE7CB68FA
:104DA0004A6889680068FFF7A3FF2268936843F0A8
:104DB00077039360D3E7CA6849680068FFF720FE6D
:104DC00060212068FFF72FFEC9E7CA6849680068BC
:104DD000FFF704FE40212068FFF725FEBFE7022011
:104DE0007047000090F83C30012B2CD010B4012308
:104DF00080F83C30022380F83D3003685A689C6894
:104E000022F0700C0A6842EA0C025A6003680F4AEA
:104E100093420AD0B3F1804F07D0A2F59432934267
:104E200003D002F58062934204D124F080044A68E2
:104E300014439C60012380F83D30002380F83C300F
:104E4000184610BC70470220704700BF002C01407C
:104E5000704770470268D36823F0C003D3602023F3
:104E600080F83D3070470268D36823F49073D360B4
:104E70000268536923F001035361036B012B05D0D2
:104E8000202380F83E300023036370470268D36814
:104E900023F01003D360F3E790F83D30DBB2212B11
:104EA00001D0022070478368B3F5805F17D0036A92
:104EB0005A1C02621A7803685A60C38C9BB2013B89
:104EC0009BB2C3844BB90268D36823F08003D360DC
:104ED0000268D36843F04003D36000207047036941
:104EE000002BE4D1036A1B880268C3F308035360F4
:104EF000036A02330362E0E710B5044602681369EF
:104F000023F44053C1680B43136183680269134360
:104F100042691A430168CB6823F4B05323F00C03B1
:104F20001343CB600268536923F4407381690B43D8
:104F300053610268134B9A4220D0FFF711FD0246DD
:104F400002EB820202EB820263689B00B2FBF3F287
:104F50000D48A0FB02314909642303FB11231B0107
:104F60003233A0FB03235B0903F0F00202EB0112D2
:104F700003F00F03216813448B6010BDFFF700FDA1
:104F80000246DDE7003801401F85EB5158B310B5EC
:104F9000044690F83D300BB3242384F83D3022685A
:104FA000D36823F40053D3602046FFF7A5FF22689F
:104FB000136923F4904313612268536923F02A0391
:104FC00053612268D36843F40053D3600020206407
:104FD000202384F83D3084F83E3010BD80F83C300A
:104FE000FEF790F9D8E701207047000038B590F837
:104FF0003D30DBB2202B31D10446002930D0002ACD
:1050000030D090F83C30012B2ED0012380F83C307A
:1050100001628284C28400250564212380F83D302A
:10502000436B12489862636B1148D862636B1148F6
:105030001863636B5D6320681346021D606BFEF7A7
:1050400021FC23686FF040021A6084F83C5022680B
:10505000536943F080035361284600E0022038BDC5
:105060000120FCE70120FAE70220F8E77950000868
:10507000C5500008D350000808B50346406A1B68B5
:105080001B6813F0200F0CD10023C38402685369FE
:1050900023F0800353610268D36843F04003D36078
:1050A00008BDFDF7B1F9FBE708B50168CA6822F051
:1050B0004002CA60202280F83D20FDF7A5F90020BB
:1050C00008BD704708B5406AFFF7FBFF08BD704791
:1050D000704710B5446A23685A6994F83D30DBB2D2
:1050E000212B10D023685A6902F0400294F83E3018
:1050F000DBB2222B11D0236C43F010032364204633
:10510000FFF7E6FF10BD02F08002002AEAD000237C
:10511000E3842046FFF79EFEE4E7002AEBD000235D
:10512000E3852046FFF79FFEE5E708B5406A0023C8
:10513000C385C384FFF7CCFF08BD704790F83E30AD
:10514000DBB2222B60D18368B3F5805F46D0826AE0
:10515000B3F5805F04D0002B4DD10369002B4AD1F9
:1051600003685B681370836A01338362C38D9BB2EB
:10517000013B9BB2C385002B48D100B583B00268C8
:10518000D36823F02003D3600268D36823F48073CC
:10519000D3600268536923F001035361202380F830
:1051A0003E30036B012B2CD1002303630268D368CC
:1051B00023F01003D36003681A6812F0100F06D0B2
:1051C000002201921A6801925B680193019B818D14
:1051D000FFF7B3FF002003B05DF804FB0269002A6B
:1051E000B5D1826A03685B68C3F308031380836ADE
:1051F00002338362BAE703685B6803F07F031370CE
:10520000B1E7FDF717F9E5E7022070470020704786
:1052100030B583B0044602681368D068516913F052
:105220000F0505D113F0200F02D010F0200F19D177
:105230002DB111F0010119D110F4907F16D1216B1D
:10524000012975D013F0800F03D010F0800F40F0CB
:10525000D78013F0400F03D010F0400F40F0D480FF
:1052600003B030BD2046FFF769FFF9E713F0010FE7
:1052700006D010F4807F03D0226C42F00102226439
:1052800013F0040F04D019B1226C42F00202226420
:1052900013F0020F04D019B1226C42F00402226410
:1052A00013F0080F07D010F0200F00D119B1226CB5
:1052B00042F008022264226C002AD1D013F0200FA1
:1052C00002D010F0200F21D123685B6903F0400366
:1052D000226C12F0080F00D123B32046FFF7C3FD64
:1052E00023685A6912F0400F18D05A6922F0400220
:1052F0005A61A36B73B1464A5A63A06BFEF71EFB5B
:105300000028ADD0A06B436B9847A9E72046FFF774
:1053100015FFD9E72046FFF7DBFEA1E72046FFF7A0
:10532000D7FE9DE72046FFF7D3FE0023236497E7CF
:1053300013F0100F86D010F0100F83D000230193CC
:105340001368019353680193019B536913F0400F55
:1053500032D0A16B0B685B689BB2002B80D0A08D14
:1053600098427FF67DAFE3858B69202B08D1A18D14
:10537000E38D9BB2C91A89B22046FFF7DEFE6FE7C4
:10538000D36823F48073D3602268536923F0010348
:1053900053612268536923F040035361202384F84A
:1053A0003E30002323632268D36823F01003D360C8
:1053B000A06BFEF7A1FADAE7A18DE38D9BB2C91AC3
:1053C00089B2E38D9BB2002B3FF44AAF00293FF432
:1053D00047AFD36823F49073D3602268536923F0F6
:1053E00001035361202384F83E30002323632268A5
:1053F000D36823F01003D3602046FFF79EFE2FE70B
:105400002046FFF749FD2BE72046FFF74DFE27E733
:105410002B51000808B5406A036B012B02D0FFF73F
:1054200056FE08BD818D4908FFF787FEF9E708B5EC
:105430000346406A1B681B6813F0200F16D1002337
:10544000C3850268D36823F48073D360026853690C
:1054500023F0010353610268536923F04003536151
:10546000202380F83E30036B012B05D0036B012B0A
:1054700008D0FCF7DFFF08BD0268D36823F01003F3
:10548000D360F3E7818DFFF758FEF4E730B583B0C2
:10549000044613468162828500250564222280F835
:1054A0003E20826B14489062A26B1448D062A26BBB
:1054B00013481063A26B556320680A46011DA06B58
:1054C000FEF7E0F9019523681A6801925A68019283
:1054D000019A84F83C50DA6842F48072DA602268FB
:1054E000536943F0010353612268536943F0400359
:1054F0005361284603B030BD2F54000815540008EE
:10550000D350000808B590F83E30DBB2202B0DD107
:1055100071B17AB190F83C30012B0DD0012380F8A5
:105520003C3000230363FFF7B1FF00E0022008BD19
:105530000120FCE70120FAE70220F8E7842801D0E7
:10554000033070470020704708B500F079FB002059
:1055500008BDF0B585B004460D4646680768B0F949
:105560000800FFF7EBFF6369A269029201930090C4
:105570002B4622693946304600F028FB05B0F0BDC5
:1055800000F1080343604FF0FF328260C3600361A3
:1055900000230360704700230361704743684B603A
:1055A0009A688A60516099600861036801330360FA
:1055B000704730B40D68B5F1FF3F11D000F108031A
:1055C0001C465B681A68AA42FAD963684B60996006
:1055D0008C606160086103680133036030BC704710
:1055E0000469F2E70369416882688A604168516032
:1055F0005A68824206D0002202611A68013A1A6093
:105600001868704782685A60F5E7000082B000238E
:1056100001930D4B1B68B3F1FF3F08D04FF05003CF
:1056200083F31188BFF36F8FBFF34F8FFEE74FF007
:10563000500383F31188BFF36F8FBFF34F8F019B2C
:10564000002BFCD002B070473800002006480068EC
:10565000006880F3088862B661B6BFF34F8FBFF36E
:105660006F8F00DF00BF000008ED00E04FF0807397
:1056700040F8043C21F0010140F8081C034B40F8BD
:105680000C3C40F8202C4038704700BF0D560008F5
:10569000074B19680868B0E8F00F80F30988BFF37A
:1056A0006F8F4FF0000080F311884EF00D0E7047A1
:1056B000584700204FF0500383F31188BFF36F8FDA
:1056C000BFF34F8F0B4A136801331360012B00D0D7
:1056D00070474FF0E023D3F8043D13F0FF0FF7D0ED
:1056E0004FF0500383F31188BFF36F8FBFF34F8FD9
:1056F000FEE700BF38000020094B1B6843B94FF09C
:10570000500383F31188BFF36F8FBFF34F8FFEE712
:10571000013B034A13600BB983F31188704700BF44
:105720003800002000000000000000000000000021
:10573000EFF30980BFF36F8F0D4B1A6820E9F00F6C
:1057400010602DE908404FF0500080F3118800F000
:1057500021FC4FF0000080F31188BDE80840196873
:105760000868B0E8F00F80F30988BFF36F8F7047C7
:105770005847002008B54FF0500383F31188BFF35A
:105780006F8FBFF34F8F00F0ABFA28B14FF0E023DB
:105790004FF08052C3F8042D002383F3118808BD15
:1057A0004FF0E022002313619361054B1B6805490C
:1057B000A1FB03139B09013B53610723136170474E
:1057C0002C000020D34D621010B582B02A4B1A78FD
:1057D000D2B20192FF221A701B78DBB28DF803302F
:1057E0009DF8033003F05003244A1370244B072222
:1057F0001A6009E0224A1368013B13609DF80330E8
:105800005B00DBB28DF803309DF8033013F0800F9E
:10581000F0D11B4B1B68032B08D04FF0500383F3D0
:105820001188BFF36F8FBFF34F8FFEE71B02144A3F
:10583000136003F4E0631360019BDBB20E4A137044
:105840004FF0E023D3F8202D42F47002C3F8202D4E
:10585000D3F8202D42F07042C3F8202DFFF7A0FFAF
:105860000024084B1C60FFF7F1FE00F093FBFFF7EC
:10587000CDFE204602B010BD00E400E050470020FD
:105880005447002038000020084B1B681B6823B9D0
:10589000074B4FF0FF321A607047044B1B68DB6800
:1058A000DB685A68024B1A60704700BF5C470020F3
:1058B000344800202DE9F04707469846089DDDF85A
:1058C00024900A9C266B02F18042013A06EB820684
:1058D00026F007064FF0000CBCF10F0F0BD811F8A3
:1058E0000C2004EB0C0383F8342011F80C3013B1B6
:1058F0000CF1010CF0E7002384F84330062D00D9A9
:105900000625E56265644FF0000AC4F848A0201D32
:10591000FFF741FE04F11800FFF73DFE2461C5F1D9
:105920000705A5616462C4F878A484F87CA44FF4E8
:105930008562514604F1500008F04AFA04F54F73AD
:10594000636504F56973A36504F20C43E365012202
:105950000023C4E93E2343F20E33A4F800314AF693
:10596000CD33A4F8023141F23423A4F804314EF2CD
:105970006D63A4F806314DF6EC63A4F808310523F5
:10598000A4F80A310B23A4F80C31424639463046BC
:10599000FFF76CFE2060B9F1000F01D0C9F800409C
:1059A000BDE8F08738B5002407E004EB84029300DB
:1059B0000E481844FFF7E4FD0134062CF5D90C4DD0
:1059C0002846FFF7DDFD0B4C2046FFF7D9FD0A48BE
:1059D000FFF7D6FD0948FFF7D3FD0948FFF7D0FDD3
:1059E000084B1D60084B1C6038BD00BF6447002099
:1059F000084800201C4800203C480020684800203F
:105A0000544800205C4700206047002010B5044641
:105A1000FFF750FE214A136801331360204B1B68C7
:105A20005BB1204B1B686BB91D4B1B68DA6AE36ADC
:105A30009A4207D81A4B1C6004E0194B1C6013688B
:105A4000012B28D0184A136801331360E06A012340
:105A50008340164A11680B43136000EB8000211D40
:105A6000134B03EB8000FFF799FDFFF745FE0D4B4D
:105A70001B687BB10A4B1B68DA6AE36A9A4209D257
:105A80004FF0E0234FF08052C3F8042DBFF34F8F47
:105A9000BFF36F8F10BDFFF785FFD3E7F0470020FE
:105AA00058470020504800200048002004480020AB
:105AB0006447002008B5503008F03EFC08BD0000E7
:105AC0000F4B1B68D3B110B5FFF7F4FD0D4BDB682E
:105AD000DC68201DFFF786FD0B4A1368013B13604D
