:020000040800F2
:1000000000500020F56900080D3200080F3200088A
:1000100011320008133200081532000800000000F9
:10002000000000000000000000000000715E0008F9
:100030001732000800000000115F0008555F00083B
:100040003D6A00083D6A00083D6A00083D6A0008F4
:100050003D6A00083D6A00083D6A00083D6A0008E4
:100060003D6A00083D6A00083D6A00083D6A0008D4
:100070003D6A00083D6A000819320008293200086C
:100080003D6A00083D6A00083D6A00083D6A0008B4
:100090003D6A00083D6A00083D6A00083D6A0008A4
:1000A0003D6A0008393200083D6A00083D6A0008D0
:1000B0003D6A00083D6A00083D6A00083D6A000884
:1000C0003D6A00083D6A00083D6A00083D6A000874
:1000D0003D6A0008493200083D6A00083D6A000890
:1000E0003D6A00083D6A00083D6A00080000000003
:1000F0000000000000000000000000000000000000
:0C01000000000000000000005FF808F1A3
:10011000844641EA000313F0030349D1403A23D354
:100120000B6803604B6843608B688360CB68C36077
:100130000B6903614B6943618B698361CB69C3615F
:100140000B6A03624B6A43628B6A8362CB6AC36247
:100150000B6B03634B6B43638B6B8363CB6BC3632F
:1001600040304031403ADBD230320BD30B68036071
:100170004B6843608B688360CB68C360103010317C
:10018000103AF3D20C3205D351F8043B40F8043B4B
:10019000043AF9D2043208D0D2071CBF11F8013B4F
:1001A00000F8013B01D30B8803806046704700BF15
:1001B000082A13D38B07B1D010F00303AED0C3F1DC
:1001C0000403D21ADB071CBF11F8013B00F8013B06
:1001D000A4D331F8023B20F8023B9FE7043AD9D37D
:1001E000013A11F8013B00F8013BF9D20B7803709A
:1001F0004B7843708B7883706046704780EA010CBF
:100200001CF0030F37D110F0030C20F0030021F095
:10021000030150F8042B08BF51F8043B0ED08CF0BA
:10022000030C6FF07F434FEACC0C23FA0CFC51F81F
:10023000043B42EA0C0243EA0C0300BFA2F1013C7A
:100240009A4201BF2CEA020C1CF0803F50F8042BAC
:1002500051F8043BF2D04FEA02604FEA1222012823
:1002600028BFB0EB036F08BF1B0AF4D003F0FF03F5
:10027000000EC01A704710F0030F0AD010F8012BBF
:1002800011F8013B012A28BF9A42F4D0A2EB0300E7
:1002900070474DF8045D50F8042B01F0030521F080
:1002A000030151F8043B022D26D04DD822F07F45A2
:1002B000B5EB132FA2F1013C2CEA020C0DD11CF07E
:1002C000803C08BF51F8043B0AD185EA0205B5EB32
:1002D000036F0CD150F8042BE8E74FEA13235BE0DF
:1002E0003CF07F4C54D10B784FEA126554E04FEA52
:1002F000126503F0FF034FE04FEA0245A2F1013C13
:100300004FEA15452CEA020CB5EB134F18D11CF03F
:10031000803C08BF51F8043B07D185EA0205B5EBE4
:10032000034F09D150F8042BE6E75FEA0C4C2FD1BC
:100330000B884FEA12452FE04FEA03434FEA12457C
:100340004FEA134328E000BF02F0FF05B5EB136F3F
:10035000A2F1013C2CEA020C0DD11CF0803C08BF3C
:1003600051F8043B0AD185EA0205B5EB032F0AD107
:1003700050F8042BE8E74FEA13630DE012F0FF0F8B
:1003800006D051F8043B4FEA122523F07F4303E0E7
:100390004FF0000020BC704705F0FF0203F0FF00A3
:1003A000012828BF904204BF2D0A1B0AF4D0A2EBFB
:1003B000000020BC704700BF81F0004102E000BF98
:1003C00083F0004330B54FEA41044FEA430594EA15
:1003D000050F08BF90EA020F1FBF54EA000C55EA50
:1003E000020C7FEA645C7FEA655C00F0E2804FEA21
:1003F0005454D4EB5555B8BF6D420CDD2C4480EA03
:10040000020281EA030382EA000083EA010180EA32
:10041000020281EA0303362D88BF30BD11F0004F80
:100420004FEA01314FF4801C4CEA113102D04042B6
:1004300061EB410113F0004F4FEA03334CEA1333F1
:1004400002D0524263EB430394EA050F00F0A78009
:10045000A4F10104D5F1200E0DDB02FA0EFC22FA04
:1004600005F2801841F1000103FA0EF2801843FAF8
:1004700005F359410EE0A5F120050EF1200E012AE9
:1004800003FA0EFC28BF4CF0020C43FA05F3C01827
:1004900051EBE37101F0004507D54FF0000EDCF1A0
:1004A000000C7EEB00006EEB0101B1F5801F1BD349
:1004B000B1F5001F0CD349085FEA30004FEA3C0C4D
:1004C00004F101044FEA445212F5800F80F09A8043
:1004D000BCF1004F08BF5FEA500C50F1000041EB47
:1004E000045141EA050130BD5FEA4C0C404141EB4B
:1004F0000101013C28BFB1F5801FE9D291F0000F46
:1005000004BF01460020B1FA81F308BF2033A3F1F4
:100510000B03B3F120020CDA0C3208DD02F1140CEB
:10052000C2F10C0201FA0CF021FA02F10CE002F126
:100530001402D8BFC2F1200C01FA02F120FA0CFC1F
:10054000DCBF41EA0C019040E41AA2BF01EB045168
:10055000294330BD6FEA04041F3C1CDA0C340EDC66
:1005600004F11404C4F1200220FA04F001FA02F3A9
:1005700040EA030021FA04F345EA030130BDC4F167
:100580000C04C4F1200220FA02F001FA04F340EA5C
:100590000300294630BD21FA04F0294630BD94F00D
:1005A000000F83F4801306BF81F480110134013DF4
:1005B0004EE77FEA645C18BF7FEA655C29D094EA65
:1005C000050F08BF90EA020F05D054EA000C04BFE3
:1005D0001946104630BD91EA030F1EBF00210020CE
:1005E00030BD5FEA545C05D14000494128BF41F06D
:1005F000004130BD14F580043CBF01F5801130BDD1
:1006000001F0004545F0FE4141F470014FF000005B
:1006100030BD7FEA645C1ABF194610467FEA655C0C
:100620001CBF0B46024650EA013406BF52EA0335AE
:1006300091EA030F41F4002130BD00BF90F0000F9C
:1006400004BF0021704730B54FF4806404F13204D8
:100650004FF000054FF0000150E700BF90F0000F91
:1006600004BF0021704730B54FF4806404F13204B8
:1006700010F0004548BF40424FF000013EE700BF88
:1006800042004FEAE2014FEA31014FEA02701FBF18
:1006900012F07F4393F07F4F81F06051704732F04A
:1006A0007F4208BF704793F07F4F04BF41F40021A1
:1006B000704730B54FF4607401F0004521F00041FF
:1006C0001CE700BF50EA010208BF704730B54FF089
:1006D00000050AE050EA010208BF704730B511F08A
:1006E000004502D5404261EB41014FF4806404F1C2
:1006F00032045FEA915C3FF4D8AE4FF003025FEA48
:10070000DC0C18BF03325FEADC0C18BF033202EBCB
:10071000DC02C2F1200300FA03FC20FA02F001FA25
:1007200003FE40EA0E0021FA02F11444BDE600BFC8
:1007300070B54FF0FF0C4CF4E06C1CEA11541DBF77
:100740001CEA135594EA0C0F95EA0C0F00F0DEF842
:100750002C4481EA030621EA4C5123EA4C5350EA27
:10076000013518BF52EA033541F4801143F4801378
:1007700038D0A0FB02CE4FF00005E1FB02E506F009
:100780000042E0FB03E54FF00006E1FB03569CF05E
:10079000000F18BF4EF0010EA4F1FF04B6F5007F64
:1007A00064F5407404D25FEA4E0E6D4146EB0606D6
:1007B00042EAC62141EA55514FEAC52040EA5E505F
:1007C0004FEACE2EB4F1FD0C88BFBCF5E06F1ED809
:1007D000BEF1004F08BF5FEA500E50F1000041EB40
:1007E000045170BD06F0004646EA010140EA0200ED
:1007F00081EA0301B4EB5C04C2BFD4EB0C0541EA0F
:10080000045170BD41F480114FF0000E013C00F323
:10081000AB8014F1360FDEBF002001F0004170BD47
:10082000C4F10004203C35DA0C341BDC04F1140460
:10083000C4F1200500FA05F320FA04F001FA05F2EC
:1008400040EA020001F0004221F0004110EBD370B9
:1008500021FA04F642EB06015EEA430E08BF20EAE5
:10086000D37070BDC4F10C04C4F1200500FA04F388
:1008700020FA05F001FA04F240EA020001F000411A
:1008800010EBD37041F100015EEA430E08BF20EA8D
:10089000D37070BDC4F1200500FA05F24EEA020ED5
:1008A00020FA04F301FA05F243EA020321FA04F004
:1008B00001F0004121FA04F220EA020000EBD370BB
:1008C0005EEA430E08BF20EAD37070BD94F0000FBB
:1008D0000FD101F00046400041EB010111F4801FEF
:1008E00008BF013CF7D041EA060195F0000F18BFA0
:1008F000704703F00046520043EB030313F4801FDC
:1009000008BF013DF7D043EA0603704794EA0C0F95
:100910000CEA135518BF95EA0C0F0CD050EA4106AB
:1009200018BF52EA4306D1D181EA030101F0004128
:100930004FF0000070BD50EA410606BF1046194650
:1009400052EA430619D094EA0C0F02D150EA01365C
:1009500013D195EA0C0F05D152EA03361CBF10469D
:1009600019460AD181EA030101F0004141F0FE413C
:1009700041F470014FF0000070BD41F0FE4141F4C0
:10098000780170BD70B54FF0FF0C4CF4E06C1CEAC0
:1009900011541DBF1CEA135594EA0C0F95EA0C0F75
:1009A00000F0A7F8A4EB050481EA030E52EA033530
:1009B0004FEA013100F088804FEA03334FF0805551
:1009C00045EA131343EA12634FEA022245EA11157E
:1009D00045EA10654FEA00260EF000419D4208BF2F
:1009E000964244F1FD0404F5407402D25B084FEADC
:1009F0003202B61A65EB03055B084FEA32024FF488
:100A000080104FF4002CB6EB020E75EB030E22BFE4
:100A1000B61A754640EA0C005B084FEA3202B6EBA4
:100A2000020E75EB030E22BFB61A754640EA5C0053
:100A30005B084FEA3202B6EB020E75EB030E22BFE3
:100A4000B61A754640EA9C005B084FEA3202B6EBE4
:100A5000020E75EB030E22BFB61A754640EADC00A3
:100A600055EA060E18D04FEA051545EA16754FEA05
:100A700006164FEAC30343EA52734FEAC2025FEA23
:100A80001C1CC0D111F4801F0BD141EA00014FF0B2
:100A900000004FF0004CB6E711F4801F04BF014383
:100AA0000020B4F1FD0C88BFBCF5E06F3FF6AFAE9F
:100AB000B5EB030C04BFB6EB020C5FEA500C50F12F
:100AC000000041EB045170BD0EF0004E4EEA1131B2
:100AD00014EB5C04C2BFD4EB0C0541EA045170BDB9
:100AE00041F480114FF0000E013C90E645EA060EFD
:100AF0008DE60CEA135594EA0C0F08BF95EA0C0F2B
:100B00003FF43BAF94EA0C0F0AD150EA01347FF472
:100B100034AF95EA0C0F7FF425AF104619462CE749
:100B200095EA0C0F06D152EA03353FF4FDAE1046AC
:100B3000194622E750EA410618BF52EA43067FF4FD
:100B4000C5AE50EA41047FF40DAF52EA43057FF48D
:100B5000EBAE12E74FF0FF3C06E000BF4FF0010C98
:100B600002E000BF4FF0010C4DF804CD4FEA410CFC
:100B70007FEA6C5C4FEA430C18BF7FEA6C5C1BD0C9
:100B800001B050EA410C0CBF52EA430C91EA030F4A
:100B900002BF90EA020F0020704710F1000F91EAA7
:100BA000030F58BF994208BF90422CBFD8176FEA75
:100BB000E37040F0010070474FEA410C7FEA6C5C43
:100BC00002D150EA013C07D14FEA430C7FEA6C5C4A
:100BD000D6D152EA033CD3D05DF8040B704700BF76
:100BE0008446104662468C461946634600E000BFC4
:100BF00001B5FFF7B7FF002848BF10F1000F01BD96
:100C00004DF808EDFFF7F4FF0CBF012000205DF860
:100C100008FB00BF4DF808EDFFF7EAFF34BF0120E5
:100C200000205DF808FB00BF4DF808EDFFF7E0FF7E
:100C300094BF012000205DF808FB00BF4DF808EDCF
:100C4000FFF7CEFF94BF012000205DF808FB00BF36
:100C50004DF808EDFFF7C4FF34BF012000205DF818
:100C600008FB00BF4FEA410C7FEA6C5C02D150EAFE
:100C7000013C0AD14FEA430C7FEA6C5C02D152EA94
:100C8000033C02D14FF0000070474FF00100704765
:100C90004FEA410212F5001215D211D56FF47873A4
:100CA000B3EB625212D94FEAC12343F0004343EA47
:100CB000505311F0004F23FA02F018BF4042704722
:100CC0004FF00000704750EA013005D111F00040AC
:100CD00008BF6FF0004070474FF00000704700BF42
:100CE00080F0004002E000BF81F0004142001FBFE1
:100CF0005FEA410392EA030F7FEA226C7FEA236CEA
:100D00006AD04FEA1262D2EB1363C1BFD2184140DE
:100D100048404140B8BF5B42192B88BF704710F074
:100D2000004F40F4000020F07F4018BF404211F017
:100D3000004F41F4000121F07F4118BF494292EA7F
:100D4000030F3FD0A2F1010241FA03FC10EB0C00AB
:100D5000C3F1200301FA03F100F0004302D5494238
:100D600060EB4000B0F5000F13D3B0F1807F06D3E5
:100D700040084FEA310102F10102FE2A51D2B1F1DD
:100D8000004F40EBC25008BF20F0010040EA0300D2
:100D90007047490040EB0000013A28BFB0F5000F52
:100DA000EDD2B0FA80FCACF1080CB2EB0C0200FA08
:100DB0000CF0AABF00EBC25052421843BCBFD04057
:100DC0001843704792F0000F81F4000106BF80F4D1
:100DD00000000132013BB5E74FEA41037FEA226C94
:100DE00018BF7FEA236C21D092EA030F04D092F05F
:100DF000000F08BF0846704790EA010F1CBF002093
:100E0000704712F07F4F04D1400028BF40F00040EF
:100E1000704712F100723CBF00F50000704700F00F
:100E2000004343F0FE4040F4000070477FEA226236
:100E300016BF08467FEA23630146420206BF5FEA07
:100E4000412390EA010F40F4800070474FF0000307
:100E500004E000BF10F0004348BF40425FEA000CCE
:100E600008BF704743F0964301464FF000001CE076
:100E700050EA010208BF70474FF000030AE000BFCC
:100E800050EA010208BF704711F0004302D540420A
:100E900061EB41015FEA010C02BF8446014600207C
:100EA00043F0B64308BFA3F18053A3F50003BCFA97
:100EB0008CF2083AA3EBC25310DB01FA02FC634444
:100EC00000FA02FCC2F12002BCF1004F20FA02F24B
:100ED00043EB020008BF20F00100704702F120023E
:100EE00001FA02FCC2F1200250EA4C0021FA02F29F
:100EF00043EB020008BF20EADC7070474FF0FF0CA4
:100F00001CEAD0521EBF1CEAD15392EA0C0F93EA9E
:100F10000C0F6FD01A4480EA010C400218BF5FEA40
:100F200041211ED04FF0006343EA501043EA5111B3
:100F3000A0FB01310CF00040B1F5000F3EBF4900AD
:100F400041EAD3715B0040EA010062F17F02FD2AB1
:100F50001DD8B3F1004F40EBC25008BF20F0010094
:100F6000704790F0000F0CF0004C08BF49024CEAAB
:100F7000502040EA51207F3AC2BFD2F1FF0340EA3D
:100F8000C250704740F400004FF00003013A5DDCAE
:100F900012F1190FDCBF00F000407047C2F10002EF
:100FA000410021FA02F1C2F1200200FA02FC5FEADC
:100FB000310040F1000053EA4C0308BF20EADC7026
:100FC000704792F0000F00F0004C02BF400010F498
:100FD000000F013AF9D040EA0C0093F0000F01F045
:100FE000004C02BF490011F4000F013BF9D041EA67
:100FF0000C018FE70CEAD15392EA0C0F18BF93EA69
:101000000C0F0AD030F0004C18BF31F0004CD8D192
:1010100080EA010000F00040704790F0000F17BF19
:1010200090F0004F084691F0000F91F0004F14D05F
:1010300092EA0C0F01D142020FD193EA0C0F03D1B7
:101040004B0218BF084608D180EA010000F00040BA
:1010500040F0FE4040F40000704740F0FE4040F495
:10106000400070474FF0FF0C1CEAD0521EBF1CEA34
:10107000D15392EA0C0F93EA0C0F69D0A2EB030252
:1010800080EA010C49024FEA402037D04FF08053EC
:1010900043EA111143EA10130CF000408B4238BFB1
:1010A0005B0042F17D024FF4000C8B4224BF5B1ABF
:1010B00040EA0C00B3EB510F24BFA3EB510340EA0D
:1010C0005C00B3EB910F24BFA3EB910340EA9C00BB
:1010D000B3EBD10F24BFA3EBD10340EADC001B012B
:1010E00018BF5FEA1C1CE0D1FD2A3FF650AF8B42CF
:1010F00040EBC25008BF20F0010070470CF0004CDC
:101100004CEA50207F32C2BFD2F1FF0340EAC25006
:10111000704740F400004FF00003013A37E792F0C7
:10112000000F00F0004C02BF400010F4000F013A25
:10113000F9D040EA0C0093F0000F01F0004C02BF20
:10114000490011F4000F013BF9D041EA0C0195E789
:101150000CEAD15392EA0C0F08D142027FF47DAF22
:1011600093EA0C0F7FF470AF084676E793EA0C0F12
:1011700004D14B023FF44CAF08466EE730F0004C10
:1011800018BF31F0004CCAD130F000427FF45CAFA0
:1011900031F000437FF43CAF5FE700BF4FF0FF3C0E
:1011A00006E000BF4FF0010C02E000BF4FF0010C61
:1011B0004DF804CD4FEA40024FEA41037FEA226C2A
:1011C00018BF7FEA236C11D001B052EA530C18BF4C
:1011D00090EA010F58BFB2EB030088BFC81738BFB1
:1011E0006FEAE17018BF40F0010070477FEA226C9F
:1011F00002D15FEA402C05D17FEA236CE4D15FEA9B
:10120000412CE1D05DF8040B704700BF84460846CE
:101210006146FFE70FB5FFF7C9FF002848BF10F18F
:10122000000F0FBD4DF808EDFFF7F4FF0CBF0120D4
:1012300000205DF808FB00BF4DF808EDFFF7EAFF5E
:1012400034BF012000205DF808FB00BF4DF808ED19
:10125000FFF7E0FF94BF012000205DF808FB00BF0E
:101260004DF808EDFFF7D2FF94BF012000205DF894
:1012700008FB00BF4DF808EDFFF7C8FF34BF0120A1
:1012800000205DF808FB00BF42000ED2B2F1FE4F15
:101290000BD34FF09E03B3EB126209D44FEA002345
:1012A00043F0004323FA02F070474FF0000070470C
:1012B00012F1610F01D1420202D14FF0FF307047AD
:1012C0004FF00000704700BF53B94AB9002908BF6A
:1012D00000281CBF4FF0FF314FF0FF3000F0E2B8A4
:1012E000ADF1080C6DE904CE12F0B4FDDDF804E0B8
:1012F000DDE9022304B0704700F1340191E83800C1
:101300009C46A6464CF8045D90E8FF0FE54600BDFC
:1013100090EC210B704700BF80EC210B704700BFA1
:1013200090EC200B704700BF80EC200B704700BF93
:10133000D0EC200B704700BFC0EC200B704700BF03
:10134000F0EC0201F0EC0211F0EC0221F0EC0231C1
:10135000F0EC0241F0EC0251F0EC0261F0EC0271B1
:10136000F0EC0281F0EC0291F0EC02A1F0EC02B1A1
:10137000F0EC02C1F0EC02D1F0EC02E1F0EC02F191
:10138000704700BFE0EC0201E0EC0211E0EC02214A
:10139000E0EC0231E0EC0241E0EC0251E0EC0261F1
:1013A000E0EC0271E0EC0281E0EC0291E0EC02A1E1
:1013B000E0EC02B1E0EC02C1E0EC02D1E0EC02E1D1
:1013C000E0EC02F1704700BFB0FC0181B0FC01917C
:1013D000B0FC01A1B0FC01B1704700BFA0FC0181CD
:1013E000A0FC0191A0FC01A1A0FC01B1704700BFCD
:1013F000EC4600B52DE900502DE9FF1F4FF000032A
:101400002DE90C0001A912F0EDFFDDF840E012B06B
:10141000704700BFEC4600B52DE900502DE9FF1FD5
:101420004FF000032DE90C0001A913F01BF8DDF8C3
:1014300040E012B0704700BFEC4600B52DE9005007
:101440002DE9FF1F4FF000032DE90C0001A913F057
:101450002BF8DDF840E012B0704700BFEC4600B555
:101460002DE900502DE9FF1F4FF000032DE90C007E
:1014700001AB12F0EBFFDDF840E012B0704700BFA7
:10148000EC4600B52DE900502DE9FF1F4FF0000399
:101490002DE90C0001AA13F065F8DDF840E012B068
:1014A000704700BF704700BF10B5054C237833B9B3
:1014B000044B13B10448AFF300800123237010BD27
:1014C000F0090020000000008851010808B5034B16
:1014D0001BB103490348AFF3008008BD00000000C2
:1014E000F40900208851010808B50268034B9A42AC
:1014F00000D008BD02F002F8FBE700BF002C01405D
:1015000072B6FEE700B591B02822002106A80DF0C2
:10151000CBF80023019302930393049305930223D2
:10152000069301220A9210220B920D934FF460133E
:101530000F9306A803F006FB80B90F230193022145
:101540000291002303934FF480620492059301A853
:1015500003F036FD20B911B05DF804FBFFF7D0FFB2
:10156000FFF7CEFF08B501F0B7FFFFF7CBFF01F0A3
:1015700055FD01F043FC01F097FC01F091FD01F0F5
:10158000CBFE01F0B7FC01F011FF01F0D9FB01F037
:1015900017FD04F0C5FBFEE730B58BB0234C244D9E
:1015A0000FCD0FC40FCD0FC495E8030084E80300EE
:1015B000002400E001340D2C26DC05940121069165
:1015C00000230793A3009BB25A0100925A1892B2CB
:1015D000520101929A1C92B25201029203339BB2C1
:1015E0005B010393002C04EA0103B8BF5B42049340
:1015F00008910E23099369460C4802F037F8002839
:10160000D8D0FFF77DFFD5E7084802F0B5F830B92C
:101610001221064802F0DEF820B90BB030BDFFF70A
:101620006FFFF5E7FFF76CFFF7E700BF0C0A00203C
:101630006816002070B5044616461D46C9B201F072
:101640001FFBF1B204F10A0001F01AFBE9B204F148
:10165000140001F06DFA00236362A36223634FF468
:10166000FA6262632387E362204670BD38B50446A0
:101670001546C9B201F002FBE9B204F10A0001F01B
:10168000FDFA38BD10B50446018759B1022911D0C1
:10169000002918DD01F000FB002104F10A0001F02F
:1016A000FBFA06E001F0F8FA002104F10A0001F06B
:1016B000F3FA10BD012101F0EFFA012104F10A0053
:1016C00001F0EAFAF5E7002101F0E6FA218F49423C
:1016D00009B204F10A0001F0DFFAEAE708B505F003
:1016E0000DF9064B1880FFF7B5FB0549FFF7BAFC6B
:1016F0000449FFF703FC044B186008BD740A00207E
:1017000000FEFF460000A040780A002038B50546DC
:101710000C4600212046FFF78FFD40B94FF07E5167
:101720002046FFF7A7FD18B14FF07E5400E00024DB
:1017300005492046FFF7E2FBFFF7A6FDC1B22846A8
:1017400005F08CF838BD00BF00007F4300B5B0F94C
:1017500004309BB20B701B0A4B7083688B708368DC
:101760001B0ACB7043890B71C37A4B714FF0000C8D
:1017700006220CE0036933F91C309BB28B541B0A20
:1017800002F1010E01F80E3002320CF1010C8368F7
:101790006345EFD8B0F914309BB28B541B0A02F1A9
:1017A000010C01F80C3002F1020CB0F916309BB2BA
:1017B00001F80C301B0A02F1030C01F80C3002F1A5
:1017C000040CB0F918309BB201F80C301B0A501D04
:1017D0000B54901D5DF804FB00487047D851010878
:1017E00000487047F451010800B58446B0F9043050
:1017F0009BB20B701B0A4B7083688B7083681B0A4B
:10180000CB7043890B71C37A4B71002006230CE027
:10181000DCF8102032F9102092B2CA54120A03F1F7
:10182000010E01F80E2002330130DCF8082082425C
:10183000EED8BCF9142092B2CA54120A581C0A54A9
:10184000981CBCF9162092B20A54120AD81C0A54E9
:10185000181DBCF9182092B20A54120A581D0A54D5
:101860009A1DDCF81C008854DCF81C20120AD81DD4
:101870000A54BCF81E0003F1080288549CF81F00AB
:1018800003F10902885403F10A0000220CE0DCF89D
:10189000243033F912309BB20B541B0A00F1010EB5
:1018A00001F80E3002300132DCF81C309342EED8E1
:1018B0005DF804FB00487047185201080048704763
:1018C00034520108F8B505460E460B784A7843EACB
:1018D000022383808C78CB7844EA03240B7944EA92
:1018E00003444B7944EA03648368A34203D3AC60A6
:1018F0000021062310E0610000690CF06DFF2861F3
:10190000F5E7F25C581C305C42EA0022AA810233FF
:10191000286920F811200131AA688A42F1D8F25CC6
:10192000591C715C42EA0122AA829A1CB25CD91C41
:10193000715C42EA0122EA821A1DB25C591D715C97
:1019400042EA01222A839A1DB75CDA1DB25C47EA9B
:10195000022703F10802B25C47EA024703F10902D9
:10196000B25C47EA026703F10A04EB69BB4202D3A7
:10197000EF61002210E07900686A0CF02DFF6862C8
:10198000F6E7335D611C715C43EA01232B8402346A
:10199000696A21F812300132EB699342F1D820468E
:1019A000F8BD70B504460D460B784A7843EA022329
:1019B00083808E78CB7846EA03260B7946EA034685
:1019C0004B7946EA03668368B34203D3A6600020DE
:1019D000062210E0710000690CF0FEFE2061F5E7C0
:1019E000AB5C511C695C43EA0123A381023221698B
:1019F00021F810300130A3688342F1D8AB5C511C50
:101A0000695C43EA0123A382931CEB5CD11C695CF3
:101A100043EA0123E382131DEB5C511D695C43EA39
:101A200001232383901D70BD2DE9F04182B006464D
:101A3000804602270CE00023012219462846FFF7C2
:101A4000F9FD3C35013C002CF5DA08F1F008013FC6
:101A5000002F02DB45460324F5E700230122194647
:101A600006F53470FFF7E6FD002400942346224675
:101A7000214606F5437001F089F8009401232246BF
:101A8000214606F5507001F081F82549C6F8741317
:101A9000244AC6F87423A6F87843C6F87C43A6F80F
:101AA0008043C6F88443A6F88843A6F88A43A6F87C
:101AB0008C43C6F89043A6F89443C6F898431A4A54
:101AC000C6F8742306F56772C6F884230C22C6F89C
:101AD0007C2306F56D70C6F898031020C6F89003B5
:101AE000C6F8D413114BC6F8D433A6F8D843C6F8B9
:101AF000DC43A6F8E043C6F8E443A6F8E843A6F8BA
:101B0000EA43A6F8EC430A4BC6F8D43306F2EE33A8
:101B1000C6F8E433C6F8DC23304602B0BDE8F081F5
:101B20001C5301084C530108645301083453010845
:101B30007C5301082DE9F04180460F46002619E04C
:101B4000C5EB0513C6EB0614240104EB83044444DF
:101B500005EB860307EB4302527817F81310204673
:101B6000FFF784FD00212046FFF78CFD0135032D92
:101B7000E6DD0136022E01DC0025F8E7BDE8F08144
:101B800010B500F534744A7809782046FFF76EFDE9
:101B900000212046FFF776FD10BD08B500F5437023
:101BA00000F0E5FF08BD08B500F5507000F0DFFF5C
:101BB00008BD2DE9F041064600F54374B0F9EA137B
:101BC000C1F34001204601F014F8B6F9EA1301F020
:101BD0000101204601F021F806F55074B6F9EC1326
:101BE000C1F34001204601F004F8B6F9EC1301F00E
:101BF0000101204601F011F8B6F9E81301F00101E6
:101C000006F5347001F048F8B6F9E813C1F3400165
:101C100006F2DA2001F040F8002720E0D6F8E4339D
:101C200005EB870833F91810C5EB0510C7EB07144F
:101C3000240104EB800401F00101301901F02CF8BB
:101C4000D6F8E43333F9181004F10A00C1F3400167
:101C5000304401F021F80135032DDFDD0137022F7B
:101C600001DC0025F8E7BDE8F08100B54FF0000C7D
:101C700027E0C3EB031ECCEB0C12120102EB8E0229
:101C80000244B2F90C20002A18BF41F0010103EB15
:101C90008C0202F5E67200EB420291800133032BC5
:101CA0000DDCC3EB0312CCEB0C11090101EB82023A
:101CB0000244B2F902100029DBD00221D9E70CF16D
:101CC000010CBCF1020F01DC0023E8E7B0F9D232CD
:101CD00003B10223B0F9DC22002A18BF43F001034C
:101CE000A0F88833D0F83433A0F88A33D0F86833BA
:101CF000A0F88C335DF804FB43680B7043681B0A43
:101D00004B70C3888B70C379CB7083680B71836809
:101D10001B0A4B7143898B71C37ACB7108207047C2
:101D20000B7843604A7843EA022343608A7843EAA7
:101D300002434360CA7843EA026343600B798360DD
:101D40004A7943EA022383608A7943EA0243836043
:101D5000CA7943EA026383600820704700487047ED
:101D60008C530108004870479C5301080048704795
:101D7000C053010800487047DC5301080048704711
:101D80000054010800487047145401080048704787
:101D9000085701080048704738540108C06A704766
:101DA00000487047D851010800487047F4510108B5
:101DB00090F8000770472DE9F04106460D468388EC
:101DC0000B7083881B0A4B7080680CF0E1FF04469F
:101DD000002305E0DA0024FA02F2991C6A54013368
:101DE000032BF7D92246B168A81DFEF791F904F13B
:101DF0000608F0680CF0CCFF0746002306E0D90087
:101E000027FA01F108EB0302A9540133032BF6D999
:101E10000A343A46F1682819FEF77AF93C443069E9
:101E20000CF0B6FF0746002305E0D90027FA01F1C0
:101E3000E218A9540133032BF7D904343A46316927
:101E40002819FEF765F9E01973692B54190A421C29
:101E5000A954190C821CA9541B0EC21CAB5404308B
:101E6000BDE8F08170B506460D4603790B708068B9
:101E70000CF08EFF0446002306E04FEAC30C24FA60
:101E80000CFC013305F803C0032BF6D92246B168D8
:101E9000681DFEF73DF9601D70BD2DE9F84306464B
:101EA0000D4643680B7043681B0A4B70C3888B70E8
:101EB000C379CB7000220424736893420FD9F3686E
:101EC00053F822302B55180A611C6854180CA11CB9
:101ED00068541B0EE11C6B5404340132ECE7336987
:101EE0002B5533691B0A621CAB54728AA31CEA543B
:101EF000F27CE31CEA5404340022336993420FD984
:101F0000B36953F822302B55180A611C6854180C19
:101F1000A11C68541B0EE11C6B5404340132ECE725
:101F2000F3692B55F3691B0A621CAB54F28BA31C9B
:101F3000EA54F27FE31CEA5404344FF0000814E042
:101F40004FEAC30C27FA0CFCCA1805F802C001338B
:101F5000032BF5D90434736A3A4653F8091028194B
:101F6000FEF7D6F83C4408F10108F36943450AD965
:101F7000736A4FEA880953F828000CF009FF0746F6
:101F800021460023E4E72046BDE8F88338B504463F
:101F900000F10C052846FFF704FDA36A2846984780
:101FA00038BDF8B505460C460E784B7846EA032650
:101FB0008B7846EA0346CB7846EA03664368B34229
:101FC00019D36E60002204266B68934219D9A35D71
:101FD000711C615C43EA0123B11C615C43EA01436B
:101FE000F11C615C43EA0163AB600436E96841F8C7
:101FF00022300132E8E7B100C0680CF0EDFBE86088
:10200000DFE7A75D731CE35C47EA0327B31CE35CCF
:1020100047EA0347F31CE35C47EA036704362B698E
:10202000BB4218D32F6100222B69934219D9A35DBB
:10203000711C615C43EA0123B11C615C43EA01430A
:10204000F11C615C43EA01636B610436A96941F8E4
:1020500022300132E8E7B900A8690CF0BDFBA861A5
:10206000E0E7A75D731CE35C47EA0327B31CE35C6E
:1020700047EA0347F31CE35C47EA03670436EB696E
:10208000BB4203D3EF614FF0000E1DE0B900686A58
:102090000CF0A2FB6862F5E70436334603E05A1EF3
:1020A000E05CA054013372189A42F8D8013A002338
:1020B000A3540CF1030C04EB0C032B620E446A6A6C
:1020C00042F82E300EF1010EEB6973450BD9B44680
:1020D000A71900210B46032BDED8FA5CD8008240FA
:1020E00011430133F7E73046F8BD10B50C4614F83C
:1020F000013B037100221346032B09D814F803C0D7
:102100004FEAC30E0CFA0EFC42EA0C020133F3E76D
:10211000052306E003F1FF3C11F803E001F80CE0B1
:10212000013302F1050C9C45F4D8131D0024CC5456
:1021300004318160501D10BD30B50B7883804A7822
:1021400043EA0223838001F1020C00221346032B91
:1021500006D81CF80340DD00AC4022430133F6E70B
:10216000062305E05C1E11F803C001F804C001332A
:1021700002F1060C9C45F5D8541D00230B554C1D4F
:10218000846002F1060C8C449E46032B07D81CF891
:102190000340DD00AC404EEA040E0133F5E702F1E6
:1021A0000A052B4605E003F1FF3CCC5C01F80C402E
:1021B000013305EB0E0C9C45F5D80CF1FF3C0023D8
:1021C00001F80C3009320A44C260754401EB050E77
:1021D0001C46032B08D81EF803204FEAC30C02FA52
:1021E0000CF214430133F4E705F1040C634605E0F7
:1021F0005A1E11F803E001F802E001330CEB04026F
:102200009A42F5D8013A00238B5403350D440561F9
:10221000A44411F80C300CF101028A5C43EA022359
:102220000CF102028A5C43EA02430CF103028A5C6D
:1022300043EA026343610CF1040030BD2DE9F0472D
:1022400084B004460D461046632904DD94F8003737
:10225000002B00F0A58003681B6804F22B4198470F
:10226000FF2384F82434FE2384F82534C3B284F891
:102270002634C0F3072284F827241344DBB2DB435F
:1022800084F8283484F8295445F3072584F82A541F
:1022900005230022811D994205DBE11891F82414E1
:1022A0000A440133F6E7C31D5142D2B2C9B258BF46
:1022B0004A4200F10805D243234483F82424B5F5AB
:1022C000007F56DC261D04F2244AB5F5807F22DD0E
:1022D0004FF48077D6F80802C0F58078C146B8453B
:1022E000A8BFB94600F584704A4651463044FDF710
:1022F0000FFFD6F808323B44DBB2C6F80832B845C7
:102300000BDB636893F83D30DBB2202B0ED0284600
:1023100004B0BDE8F0872F46DCE7A7EB09020AEB23
:10232000090106F58470FDF7F3FEEAE71D4B1B7803
:10233000002BECD11B4B01221A70D6F80872D6F88C
:102340000C128F420ED011DD7F1A01F58471BAB2E2
:102350003144606803F036FAD6F80C323B44DBB205
:10236000C6F80C320F4B00221A70D0E7C1F5807707
:10237000EBE70D4B01930D4B019300238DF80830D3
:102380000B4B039303238DF808300A4B0393236808
:102390001B6801AA0721204698474FF0FF35B6E792
:1023A0000025B4E77C0A00201C530108745601087C
:1023B000685701085C540108F8B505460E4640F21E
:1023C0003C7200210CF070F94B4B2B604B4B2B6097
:1023D00000246C60C5F80841C5F80C42C5F81042ED
:1023E000C5F81442C5F81842C5F81C42C5F8204289
:1023F0004FF400773A46214605F509700CF054F980
:102400003A46214605F224400CF04EF964273A463C
:10241000214605F224600CF047F93A46214605F5BD
:10242000D1600CF041F9C5F8EC46C5F8F046C5F8A6
:10243000F446C5F8F846C5F8FC4685F80047C5F8E7
:102440000447C5F80847C5F80C4785F810472C4BDA
:10245000C5F814372B4BC5F81437C5F81847C5F81D
:102460001C47C5F82047C5F824470023C5F828377E
:10247000C5F82C47C5F83047C5F83447C5F8384784
:10248000214B2B60C5F83C67294641F8046F4FF497
:1024900080720431304603F021FCC5F8EC46C5F8E3
:1024A000F046C5F8F846C5F8F4462146182910DC70
:1024B00001F5C47305EB83035B680BB10131F5E7EC
:1024C00001F5C47205EB8202104B53607D319960B7
:1024D000DD600023182B0DDC03F5D17255F82220A6
:1024E0000AB10133F6E703F5D171094A45F8212015
:1024F000643353602846F8BDA4560108D05601083D
:102500001C5301088C560108E4560108800A00207B
:10251000D4110020012800D0704708B54FF6FF7392
:10252000994200D008BD11491148FFF745FF114BF2
:10253000114A1A60114A5A6000221A61104B11495F
:102540001960114919601149D9601149D9601A827D
:102550005A611A83DA611A845A849A840D4A9A62FB
:102560000122DA620C4A9A60DCE700BFA047002033
:10257000940A0020800A0020985401087815002051
:10258000D4110020B8560108F85601081C53010860
:1025900034530108DD2C0008A454010838B5D0F8E4
:1025A0003C378B4200D038BD041D436893F83D3062
:1025B000DBB2202BF7D1114B1B78002BF3D10F4B43
:1025C00001221A70D4F80852D4F80C128D420ED0A1
:1025D00011DD6D1A01F58471AAB22144406803F03F
:1025E000F1F8D4F80C322B44DBB2C4F80C32034BB4
:1025F00000221A70D7E7C1F58075EBE77C0A00204E
:1026000008B501460148FFF7C9FF08BD940A00203C
:1026100008B5D0F83C378B4200D008BD4FF480722B
:1026200000F10801406803F059FBF6E708B50146E0
:102630000148FFF7EDFF08BD940A002038B50C46AD
:102640000548FFF712FB054BD8680268156822465B
:102650009968A84738BD00BF04120020800A0020F6
:10266000F0B587B00446334B0093334B00930025FD
:10267000ADF80450314B029303930493059500E0A9
:102680000135182D25DC05F5C47304EB83035B6865
:10269000002BF5D09A68ADF804201A6802925868A9
:1026A00003689B689847039005F5C47604EB86069B
:1026B000736858680368DB68984704904FF40073A8
:1026C0000593716823681B686A4609692046984724
:1026D000D6E7002500E00135182D25DC05F5D1737E
:1026E00054F823000028F6D04368ADF8043083681E
:1026F000029303689B689847039005F5D17654F8D8
:1027000026000368DB68984704904FF40073059334
:1027100023681F6854F8260003685B6898470146E1
:102720006A462046B847D6E7012384F8003707B049
:10273000F0BD00BF1C5301085C5601086857010832
:102740002DE9F04385B00446051D00F0E3FE064682
:10275000D4F80837C31A42F6F822934202D900236C
:1027600084F80037D4F8EC36DBB1D4F80C37B34238
:1027700017D20023C4F8EC3613E04FF0FF312DE000
:10278000D4F8F8365A1CC4F8F826234483F82412E7
:10279000D4F8F036013BC4F8F03613B90823C4F876
:1027A000EC36D4F820323BB100F0B4FE801BD4F8F4
:1027B0002032984200F26A81D5F804212B689B6B85
:1027C0001B685B685B42DBB29A42D6D0531CC5F8EB
:1027D00004312A441179DBB2C5F804310029C0F272
:1027E0003481D4F8FC260A44C4F8FC26D4F8EC362C
:1027F000072BC5D0B3B9FF2907D10133C4F8EC3694
:1028000006F11403C4F80C37CBE700F083FE801BFD
:1028100041F288339842C4D9002384F800376FF01E
:10282000010035E1012B2ED0022B4BD0032B54D0CD
:10283000042B5CD0052B69D0062B6FD0082BB0D1B0
:102840000023C4F8EC369B1AD2B2DBB258BF5A420E
:10285000FF2AA6D1D4F8F436002B71D00A2B00F051
:102860008A80062B00F0E3800B2B00F0EA8003F552
:102870009F7354F82300002893D003681B6804F565
:10288000097198478DE7FE2918D00023C4F8EC366B
:1028900094F80037002B84D1804B0193804B019337
:1028A00000230293039323681B6801AA0A21204690
:1028B000984700F02FFEC4F8140272E70133C4F801
:1028C000EC366EE7C4F8F0160022C4F8F82601339F
:1028D000C4F8EC36C4F8FC1663E7D4F8F02602EB33
:1028E0000122C4F8F0260133C4F8EC3659E751420E
:1028F000D2B2C9B258BF4A42FF2A03D00023C4F85B
:10290000EC364EE70133C4F8EC364AE7C4F8F41667
:102910000133C4F8EC36C4F8FC1642E7D4F8F436B8
:1029200003EB0123C4F8F4360723C4F8EC36D4F8DB
:10293000F036002B7FF435AF0823C4F8EC3630E7CF
:10294000564B0193564B0193002302930393236844
:102950001B6801AA0A212046984700F0DBFDC4F855
:1029600014022046FFF77CFEC4F80467C4F8086729
:102970004FF0FF308CE004F50977484B0193484B4A
:10298000019300230293039300F0C4FDD4F81432A2
:10299000C01A94F82422029239467B7842EA032234
:1029A0000292BB7842EA03420292FB7842EA036257
:1029B00002923B7903937F7943EA072303938F794C
:1029C00043EA07430393C97943EA01630393354F0D
:1029D000A7FB00C14FEA911C02EB911202924FF447
:1029E0007A7808FB1C00DFF8C09009FB00330393E2
:1029F00000F090FDA7FB0027B909029AA2EB9712FD
:102A0000013AC4F8182208FB1103039A09FB1322A8
:102A1000264B1344C4F81C3204F5077104F5067004
:102A200000F04EF800F076FDC4F80807B9E604F5AA
:102A3000097104F21470FFF7B4FA012384F8103717
:102A4000AFE6002384F80037ABE694F8003713B301
:102A5000D4F80437F31A40F6C412934201D8002088
:102A600016E00E4B01930E4B019300250295039542
:102A700023681B6801AA0A212046984700F04AFDF6
:102A8000C4F81402C4F80467284601E06FF001009E
:102A900005B0BDE8F0830020FAE700BF1C53010831
:102AA00044560108D34D621040420F0000CA9A3BC1
:102AB00008B54FF6FF710120FFF72CFD08BD00009F
:102AC00030B40C68630A074AA2FB0323DA09064DF7
:102AD00005FB1242046804EBD31303600A6030BCA8
:102AE000704700BF834B040000CA9A3B00000000FF
:102AF00010B504460078FEF7F1FDFDF7C1FD002298
:102B0000074BFDF73FFF04A3D3E90023FDF710FEB9
:102B1000FEF7BEF8606010BD000000000088C340F2
:102B200000001440017070478160C260704700006F
:102B300038B5044600254560FFF7F4FF034A2946EF
:102B40002046FFF7F1FF204638BD00BFAE4205002A
:102B500008B5043000F075F808BD08B51430FFF76B
:102B6000E1FF08BD08B5083000F088F808BD70B571
:102B7000044615461E46FFF7EBFF31462046FFF799
:102B8000ECFF29462046FFF7EDFF70BD2DE9F0412F
:102B900004460D4616461F460021043000F053F847
:102BA00004F108080021404600F06AF8002104F111
:102BB0001400FFF7BDFF3B46324629462046FFF78B
:102BC000D6FF9DF81830236000216162A162E162A6
:102BD0002163404600F060F82046BDE8F08108B56A
:102BE000043000F041F808BD08B5043000F033F8B7
:102BF00008BD08B511B1FFF7F7FF08BDFFF7EFFFFC
:102C0000FBE708B50121083000F046F808BD08B51B
:102C10000021083000F040F808BD08B511B1FFF7F9
:102C2000F0FF08BDFFF7F3FFFBE710B504461430D3
:102C3000FFF75EFF2368012B01D0A06210BD404268
:102C4000FBE70170704710B5044600234380FFF78F
:102C5000F8FF204610BD10B5044600210078FEF7AD
:102C600055FD0123638010BD10B504464FF07E5121
:102C70000078FEF74BFD0023638010BD01707047A4
:102C800010B504460022828001234380C280038164
:102C9000FFF7F4FF204610BD10B50346418089B20E
:102CA000C1F1010108B298801C78FEF7D3F8014603
:102CB0002046FEF72BFD10BD012800D0704708B557
:102CC0004FF6FF73994200D008BD0248FEF7ACFEF4
:102CD000FAE700BF0412002070470000B0F904209A
:102CE0000F4BA3F8D823002308E001690C4AD2F85F
:102CF000E42331F9131022F81310013382689A4249
:102D0000F3DCB0F91420064BA3F8E823B0F9162041
:102D1000A3F8EA23B0F91820A3F8EC23704700BF0A
:102D2000041200204FF47A7393FBF0F0034B186009
:102D3000002800DD704701221A60FBE72400002014
:102D400010B503F069FD03F0A1FDFEF725FC64203A
:102D5000FFF7E8FF0D4C0E492046FEF7EBFE0D494C
:102D60002046FEF70DFF0C4B1B780C4A12780C49DD
:102D700009782046FEF711FF0A4B1B780A4A1278A1
:102D80000A4909782046FEF70EFF10BD0412002004
:102D900000000020180000201E0000201F0000205E
:102DA0001D0000201B0000201C0000201A00002035
:102DB00038B50C4C04F54370FFF737FF04F550703D
:102DC000FFF733FF2046FEF7F4FE2046FEF74DFFE7
:102DD000054D04F55D712846FFF730FC2846FFF7E6
:102DE000AFFC38BD04120020940A002008B54FF64D
:102DF000FF710120FFF760FF08BD000008B50B4818
:102E00000B4B03601023436000238360C3600361A6
:102E10004361037643768376C3760377437700F086
:102E20007FFB00B908BDFEF76BFBFBE768160020CF
:102E30000064004010B586B000230293039304930E
:102E400005930268164B9A4201D006B010BD03F5F7
:102E5000D633DA6942F00072DA61DA6902F00072A0
:102E60000092009A9A6942F004029A619B6903F009
:102E700004030193019B4FF400630293094C02A9E0
:102E8000204600F0B7FE4FF48053029302230393D1
:102E90000323059302A9204600F0ACFED5E700BF4E
:102EA000006400400008014008B50548054B036078
:102EB00000F0FAFC00B908BDFEF722FBFBE700BFFB
:102EC00090160020003002400268094B9A4200D060
:102ED000704782B0A3F500535A6942F040025A612C
:102EE0005B6903F040030193019B02B0704700BF90
:102EF0000030024000B583B00E4B5A6942F0010227
:102F00005A615B6903F001030193019B00220521D3
:102F10000E2000F083FC0E2000F0B8FC00220521FA
:102F20000F2000F07BFC0F2000F0B0FC03B05DF838
:102F300004FB00BF0010024000B583B003F0BAFAF2
:102F4000019008E0084B00221A60FFF731FF0121D1
:102F500001A803F0BDFB044A136801331360034A60
:102F600012689342EEDAF2E7242B002024000020BE
:102F700000B583B003F09EFA019008E0084B0022F0
:102F80001A60FFF7A9FE012101A803F0A1FB044A82
:102F9000136801331360034A12689342EEDAF2E7D2
:102FA000202B002020000020034B0360034B0B600C
:102FB00080231360704700BFB0410020AC3F002069
:102FC00010B58EB0124C0DF11C0CA646BEE80F00D9
:102FD000ACE80F009EE807008CE80700002107A876
:102FE00002F0A3FE0B4B1860EE4604F11C0CBCE88B
:102FF0000F00AEE80F009CE807008EE807000021F4
:10300000684602F092FE044B18600EB010BD00BF7F
:10301000A0510108A83F00209816002030B587B0C5
:1030200000240294039404940594194B9A6942F085
:1030300008029A619A6902F008020092009A9A695D
:1030400042F004029A619B6903F004030193019B1F
:10305000104D22464FF40051284600F0DDFE4FF49B
:10306000005302930123039304940223059302A9BE
:10307000284600F0BFFD4FF400430293064B039334
:10308000049402A9054800F0B5FD07B030BD00BFAB
:1030900000100240000C0140000011100008014027
:1030A00008B50B480B4B03600B4B43600023836058
:1030B000C3604FF48042026143618361C361036274
:1030C00001F03CF900B908BDFEF71AFAFBE700BFB2
:1030D0003046002000580040A086010010B586B0A0
:1030E000002302930393049305930268114B9A42C1
:1030F00001D006B010BD104CA36943F00803A361D2
:10310000A36903F008030093009B4FF4406302930C
:10311000122303930323059302A9084800F06AFDD4
:10312000E36943F48003E361E36903F480030193FB
:10313000019BDEE70058004000100240000C0140F7
:1031400000B583B0114B9A6942F001029A619A6905
:1031500002F001020092009ADA6942F08052DA61CC
:10316000DB6903F080530193019B00220F216FF074
:10317000010000F053FB064A536823F0E06343F07C
:103180000073536003B05DF804FB00BF0010024001
:103190000000014000B589B001460022192000F06E
:1031A0003DFB192000F072FB144B9A6942F4006257
:1031B0009A619B6903F400630193019B02A903A830
:1031C00001F0DAFF01F0C8FF0D4BA3FB00239B0CBD
:1031D000013B0C480C4A026040F2E732C260436097
:1031E00000230361836002F043F918B1012009B0A4
:1031F0005DF804FB034802F00BF8F8E7001002400A
:1032000083DE1B4384460020002C0140FEE7FEE7DE
:10321000FEE7FEE7FEE7704708B5024800F048FC0D
:1032200008BD00BF5C47002008B5024800F040FC24
:1032300008BD00BF1847002008B5024802F020F87A
:1032400008BD00BF8446002008B5024802F0CCFB50
:1032500008BD00BFA04700200120704708B50AF054
:10326000E5FB162303604FF0FF3008BD08B54FF0B3
:10327000FF31FFF7F3FFFEE770B50C461646002559
:1032800006E0AFF30080214601F8010B01350C4642
:10329000B542F6DB304670BD70B50C4616460025CB
:1032A00004E014F8010BAFF300800135B542F8DB00
:1032B000304670BD4FF0FF3070474FF400534B6005
:1032C00000207047012070470020704710B503466A
:1032D0000C4A0D490D48006840B10C480068034491
:1032E000521A934206D8094A136010BD0748084C89
:1032F0000460F2E70AF09AFB0C2303604FF0FF3002
:10330000F3E700BF0050002000040000CC4600207E
:10331000884900207047000000B587B00023029361
:103320000393049305930093019315484FF0804253
:103330000260436083604FF6FF72C2600361836185
:1033400002F096F890B94FF48053029302A90C480A
:1033500002F0C6F868B90023009301936946084853
:1033600002F02CF940B907B05DF804FBFEF7C8F88D
:10337000E9E7FEF7C5F8EEE7FEF7C2F8F3E700BFAE
:10338000D04600200368B3F1804F00D0704782B070
:1033900003F50433DA6942F00102DA61DB6903F014
:1033A00001030193019B02B07047000008B50A4871
:1033B0000A4B03604FF4E133436000238360C36032
:1033C00003610C2242618361C36102F0CBF900B951
:1033D00008BDFEF795F8FBE7A04700200038014044
:1033E00070B586B00023029303930493059302689B
:1033F000334B9A4201D006B070BD044603F55843E2
:103400009A6942F480429A619A6902F48042009279
:10341000009A9A6942F004029A619B6903F00403DE
:103420000193019B4FF40073029302230393032340
:103430000593244E02A9304600F0DCFB4FF4806374
:10344000029300250395049502A9304600F0D2FBB3
:103450001D481E4B0360456085608023C360056185
:10346000456185614FF48053C36100F043FA00BBAE
:10347000154BA3635C621648164B03601023436030
:10348000002383608022C2600361436183614FF443
:103490008053C36100F02EFA70B90D4B63635C6218
:1034A00000220521252000F0B9F9252000F0EEF9D1
:1034B000A1E7FEF725F8DBE7FEF722F8EDE700BF0E
:1034C0000038014000080140184700205800024021
:1034D0005C4700204400024008B5074A136843F0E7
:1034E00010031360032000F087F90F20FFF752FE4E
:1034F000FFF726FE002008BD00200240034A1168A5
:10350000034B1B780B441360704700BFE447002057
:103510002C000020014B1868704700BFE4470020D2
:10352000002800F0A18038B5044690F82030D3B1CF
:103530002268136843F001031360FFF7EBFF0546B1
:1035400023685A6812F0010F10D1FFF7E3FF401B08
:103550000A28F5D9636A43F400336362052384F8CB
:103560002030012038BDFFF765FCE1E71A6822F042
:1035700002021A60FFF7CEFF054623685A6812F070
:10358000020F0DD0FFF7C6FF401B0A28F5D9636A6A
:1035900043F400336362052384F820300120E1E71F
:1035A000227E012A3DD01A6822F080021A60637ED2
:1035B000012B3BD02268136823F040031360A37EE5
:1035C000012B39D02268136823F020031360E37EB7
:1035D000012B37D02268136843F010031360237F58
:1035E000012B35D02268136823F008031360637F32
:1035F000012B33D02268136823F004031360A368FF
:10360000E268134322691343626913436268013A13
:1036100021681343CB6100206062012384F82030CD
:10362000A0E71A6842F080021A60C0E722681368B7
:1036300043F040031360C2E72268136843F020039D
:103640001360C4E72268136823F010031360C6E711
:103650002268136843F008031360C8E72268136800
:1036600043F004031360CAE701207047026890F832
:103670002030013BDBB2012B05D9436A43F48023A0
:1036800043620120704710B5D2F8003243F00103C5
:10369000C2F800324B6903F01F03012000FA03F364
:1036A000D2F81C026FEA030C20EA0300C2F81C02E5
:1036B000C869C0B9D2F80C020CEA0000C2F80C02CA
:1036C0008C884869D1F80CE044EA0E44483042F84E
:1036D00030400C884869D1F808E044EA0E4448308C
:1036E00002EBC0004460C86901281AD0886988BB11
:1036F000D2F804020CEA0000C2F80402086978BBA0
:10370000D2F814020CEA0000C2F81402096A012976
:103710002CD0D2F8003223F00103C2F8003200208E
:1037200010BDD2F80C021843C2F80C028C8848690C
:10373000D1F800E044EA0E44483042F830408C8929
:103740004869D1F808E044EA0E44483002EBC00072
:103750004460CBE7D2F804021843C2F80402CDE774
:10376000D2F814021843C2F81402CFE7D2F81C12A0
:103770000B43C2F81C32CCE770B5044690F82050D9
:10378000EDB2012D06D0436A43F4002343620125C4
:10379000284670BD022380F820300268136823F0A9
:1037A00001031360FFF7B6FE064623685B6813F05B
:1037B000010F0CD0FFF7AEFE831B0A2BF5D9636A0D
:1037C00043F400336362052384F82030E0E70025EA
:1037D0006562DDE790F82030013BDBB2012B05D9B3
:1037E000436A43F4802343620120704702685369AF
:1037F0001943516100207047074AD36823F4E063FE
:103800001B041B0C000200F4E060034343F0BF63A1
:1038100043F40033D360704700ED00E000B5194B6E
:10382000DB68C3F30223C3F1070CBCF1040F28BF0C
:103830004FF0040C03F1040EBEF1060F18D9033B40
:103840004FF0FF3E0EFA0CFC21EA0C0199400EFAF3
:1038500003F322EA0303194300280BDB0901C9B271
:1038600000F1604000F5614080F800135DF804FB52
:103870000023E5E700F00F000901C9B2024B19541B
:10388000F4E700BF00ED00E014ED00E0002807DBE6
:1038900000F01F02400901239340024A42F8203001
:1038A000704700BF00E100E058B110B5044643790D
:1038B0001BB101236371002010BD0371FFF704FBEE
:1038C000F7E70120704730B40124056CAC40C56BAC
:1038D0006C60046863604368102B05D003689960CE
:1038E0000368DA6030BC704703689A600368D96087
:1038F000F8E7000060B310B402460168154B0B44B2
:103900001548A0FB03031B099B001364134BD363EF
:10391000022382F82130086820F47F5020F0300024
:10392000536894682343D468234314692343546938
:10393000234394692343D469234303430B6000204A
:103940009063012382F8213082F8200010BC704778
:1039500001207047F8FFFDBFCDCCCCCC0000024069
:1039600038B5044690F82000012831D0012084F8B1
:10397000200094F82100012804D0002384F820308E
:10398000022038BD022084F821000020A0632568B1
:10399000286820F0010028602046FFF794FFE36AC2
:1039A0005BB12268136843F00E031360226813684A
:1039B00043F0010313600020E3E72268136823F05B
:1039C000040313602268136843F00A031360EDE7F1
:1039D0000220D6E790F82130022B06D0042383631F
:1039E000002380F82030012070470268136823F01C
:1039F0000E0313600268136823F001031360036C65
:103A0000C16B012202FA03F34B6080F821200023EE
:103A100080F820301846704708B590F82130022B06
:103A200003D004238363012008BD0268136823F0D8
:103A30000E0313600268136823F001031360036828
:103A4000194A934214D0143293421FD01432934235
:103A50001ED0143293421ED0143293421ED0143220
:103A6000934202D04FF0807203E04FF4801200E0E6
:103A700001220E4B5A60012380F82130002380F888
:103A80002030436B6BB198470020CDE71022F0E760
:103A90004FF48072EDE74FF48052EAE74FF4803242
:103AA000E7E70020C0E700BF080002400000024036
:103AB00038B5C36B1A6804682568016C04238B4011
:103AC000134235D015F0040F32D0236813F0200FC5
:103AD00003D1236823F0040323600368434A93421D
:103AE00014D01432934218D01432934217D01432A7
:103AF000934217D01432934217D01432934202D01B
:103B00004FF0806203E04FF4800200E00422384B63
:103B10005A60C36A03B1984738BD4022F7E74FF4B3
:103B20008062F4E74FF48042F1E74FF48022EEE741
:103B300002238B4013423CD015F0020F39D023688A
:103B400013F0200F06D1236823F00A03236001231A
:103B500080F821300368254A934214D014329342EE
:103B60001CD0143293421BD0143293421BD0143217
:103B700093421BD01432934202D04FF0007203E004
:103B80004FF4001200E00222194B5A60002380F823
:103B90002030836A002BBFD09847BDE72022F3E78F
:103BA0004FF40072F0E74FF40052EDE74FF40032AB
:103BB000EAE7082303FA01F11142ADD015F0080F2E
:103BC000AAD0236823F00E032360026CC16B01238B
:103BD00003FA02F24A60836380F82130002380F800
:103BE0002030036B002B97D0984795E708000240E0
:103BF0000000024070B582B00024A446A6E0804DCB
:103C0000AA4210D007D97F4DAA420CD005F58035C5
:103C1000AA4208D013E0A5F58015AA4203D005F505
:103C20007025AA4207D18A68002A58D0012A51D0AB
:103C30004361082403E0A5F58015AA42F3D0BEF144
:103C4000FF0F4ED80646BEF1FF0F4CD84FEA8C024C
:103C500033680F25954023EA050304FA02F2134363
:103C600033604B6813F0805F6ED0674B9A6942F007
:103C700001029A619B6903F001030193019B4FEAE2
:103C80009C02951C614B53F825600CF003039D00CA
:103C90000F23AB4026EA03065D4B984229D003F57B
:103CA0008063984200F08E8003F58063984200F0B4
:103CB0008B8003F58063984219D004231AE0CC6806
:103CC000BDE7CC680434BAE7CC680834B7E7CC6801
:103CD0000C34B4E703610824B1E70024AFE70424FF
:103CE000ADE7061DAFE7ACF108029200B0E7032391
:103CF00000E00023AB4033430232444D45F822300C
:103D00004B6813F4803F61D0424A136843EA0E03C4
:103D100013604B6813F4003F5ED03E4A536843EA99
:103D20000E0353604B6813F4801F5BD0394A9368CD
:103D300043EA0E0393604B6813F4001F58D0354AD2
:103D4000D36843EA0E03D3600CF1010C0A6832FA1F
:103D50000CF353D0012303FA0CF302EA030E33EA07
:103D60000202F1D14A68122A3FF649AF122A3FF601
:103D700066AF01A555F822F0273C0008BF3C0008BB
:103D8000C93C0008DB3C00083F3C00083F3C000801
:103D90003F3C00083F3C00083F3C00083F3C000817
:103DA0003F3C00083F3C00083F3C00083F3C000807
:103DB0003F3C00083F3C00083F3C0008C33C000873
:103DC000CF3C0008012395E7022393E7114A1368CB
:103DD00023EA0E0313609CE70E4A536823EA0E039E
:103DE00053609FE70B4A936823EA0E039360A2E7B0
:103DF000084AD36823EA0E03D360A5E702B070BD7A
:103E000000002210000031100010024000000140AC
:103E100000080140000401400AB101617047090433
:103E20000161704703685A6912F4806F01D1002064
:103E300070476FF480625A6100230363202280F888
:103E40003D2080F83E30026C42F00402026480F8AB
:103E50003C30012070472DE9F04107460D46904661
:103E60001E4624E0FFF756FB069BC01AB04200D85E
:103E7000EEB900233B63202287F83D2087F83E30CF
:103E80003A6C42F020023A6487F83C3001201EE090
:103E90003B689C6925EA040C1FFA8CFCBCFA8CFC7C
:103EA0004FEA5C1CE04511D1B6F1FF3FDAD1C5F312
:103EB0000743012BECD13B685B6925EA030C1FFA31
:103EC0008CFCBCFA8CFC4FEA5C1CEBE70020BDE8E4
:103ED000F0812DE9F04105460E46174698463DE033
:103EE0001A6842F400721A602B686FF480625A619B
:103EF00000232B63202285F83D2085F83E302A6C74
:103F000042F004022A6485F83C30012034E0FFF7D7
:103F100001FBA0EB0800B84200D8FFB900232B63D7
:103F2000202285F83D2085F83E302A6C42F02002A0
:103F30002A6485F83C3001201EE02B689C6926EA43
:103F40000404A4B2003C18BF0124A4B12B685A6930
:103F500012F4806FC4D1B7F1FF3FD8D1C6F3074345
:103F6000012BEAD12B685C6926EA0404A4B2003C68
:103F700018BF0124E9E70020BDE8F081F0B583B067
:103F800004460D4616461F46C36A082B0DD0012B6A
:103F90000BD013F5803F08D0036B122B0AD10268B7
:103FA000136843F48073136004E02268136843F4D9
:103FB000807313600097334600224FF001112046B2
:103FC000FFF749FF80B92369B3F5804F16D1236805
:103FD00005F0FE051D613B46324613492046FFF7BA
:103FE00078FFF8B903B0F0BD23681B6813F4807F35
:103FF00002D04FF4007323640320F3E7EB1122682F
:1040000003F0060343F0F00313613B4632460749D1
:104010002046FFF75EFF18B92368EDB21D61DAE7AD
:104020000120DFE70120DDE70200010008000100B8
:104030002DE9F04184B004460D4616461F46C26A7B
:1040400001680B6843F480630B60082A0DD0012AD5
:104050000BD012F5803F08D0036B112B0AD10268F8
:10406000136843F48073136004E02268136843F418
:10407000807313600097334600224FF001112046F1
:10408000FFF7E9FE98B92369B3F5804F19D123688A
:1040900045F00105EDB21D613B4632462A492046F6
:1040A000FFF717FF00284CD104B0BDE8F08123686A
:1040B0001B6813F4807F02D04FF400732364032045
:1040C000F2E74FEAE51808F00608236848F0F00226
:1040D0001A613B4632461D492046FFF7FAFE08B1F9
:1040E0000120E1E72368EDB21D613B4632461649E7
:1040F0002046FFF7EEFE08B10120D5E7002203922B
:10410000236859690391996903910399196841F4E6
:1041100080711960009733464FF001112046FFF778
:104120009AFE20B9226848F0F1031361B4E72368CE
:104130001B6813F4807F02D04FF4007323640320C4
:10414000B2E70120B0E700BF020001000800010053
:1041500070B504460D46164623685B6913F0800F60
:104160001CD12046FFF75EFED0B9B5F1FF3FF3D07A
:10417000FFF7D0F9801BA84201D8002DECD1002315
:104180002363202284F83D2084F83E30226C42F0E4
:104190002002226484F83C30012000E0002070BD41
:1041A0000120FCE72DE9F04385B004460D46914619
:1041B0001F46DDF830800D9E0368196841F4807158
:1041C00019600096434600224FF00111FFF743FEAD
:1041D00060B9236805F0FE051D6133464246264955
:1041E0002046FFF776FE68B1012008E023681B68CF
:1041F00013F4807F02D04FF400732364032005B0D2
:10420000BDE8F0830023039323685A6903929B69F6
:104210000393039B324641462046FFF799FF30B98E
:10422000012F0FD123685FFA89F61E61E7E7236C3F
:10423000042B01D00120E2E72268136843F40073E5
:104240001360F7E723684FEA19221A6132464146A4
:104250002046FFF77DFF20B923685FFA89F61E61CB
:10426000CDE7236C042B01D00120C8E72268136836
:1042700043F400731360F7E70200010070B50446D1
:104280000D46164623685B6913F0040F1CD12046C7
:10429000FFF7C8FDD0B9B5F1FF3FF3D0FFF73AF90A
:1042A000801BA84201D8002DECD1002323632022DB
:1042B00084F83D2084F83E30226C42F020022264D3
:1042C00084F83C30012000E0002070BD0120FCE7B4
:1042D00070B505460C4616462B68596911F0400F1B
:1042E00029D1596911F0100F15D1FFF713F9801B6F
:1042F000A04201D8002CEFD100232B63202285F8A7
:104300003D2085F83E302A6C42F020022A6485F870
:104310003C30012070BD6FF010025A6100232B6306
:10432000202285F83D2085F83E302A6C2A6485F8E5
:104330003C300120EEE70020ECE70000002800F010
:10434000CC8070B5044690F83D30002B77D0242304
:1043500084F83D302268136823F00103136022685B
:10436000136843F4004313602268136823F4004386
:10437000136000F0E1FE62685A4B9A4264D85A4BCF
:1043800098428CBF00230123002B40F0A88057499E
:10439000A1FB00318B0C25686A6822F03F0242EADB
:1043A00091426A6021680A6A22F03F0266684D4DB8
:1043B000AE424FD8013313430B622168CA6922F41D
:1043C0004F4222F0FF026668464B9E424CD8431E85
:1043D0007600B3FBF6F3013340F6FC70034278D06D
:1043E000C3F30B031343CB6121680B6823F0C003B5
:1043F000E269206A024313430B6021688B6823F44F
:10440000034323F0FF032269E068024313438B60F8
:104410002168CB6823F0FF036269A069024313435C
:10442000CB602268136843F001031360002020640E
:10443000202384F83D30206384F83E0070BD80F86E
:104440003C30FEF74BFE82E7294B98428CBF00239D
:10445000012399E74FF4967505FB03F3254DA5FB62
:1044600003539B090133A6E7A368BBB9451E06EBBE
:10447000460CB5FBFCF50135C5F30B05B5FA85F522
:104480006D0945BBC3B9013806EB4603B0FBF3F336
:104490000133C3F30B0343F40043A3E7451E06EBCC
:1044A000860C0CEB8C0CB5FBFCF50135C5F30B054C
:1044B000B5FA85F56D09E4E7013806EB860303EBF1
:1044C0008303B0FBF3F30133C3F30B0343F4404323
:1044D00088E7042386E7012384E701207047012051
:1044E000ACE700BFA08601007F841E0083DE1B4373
:1044F000FF083D00D34D62102DE9F04385B004461E
:104500000F46914698460C9EFFF704F8054694F82E
:104510003D00C0B2202804D00227384605B0BDE8CF
:10452000F0830095192301224F492046FFF793FCA1
:10453000002840F0928094F83C30012B00F08F80EE
:10454000012384F83C3023681A6812F0010F03D16C
:104550001A6842F001021A602268136823F40063AB
:104560001360212384F83D30102384F83E3000236B
:104570002364C4F82490A4F82A80638D23853B4BE0
:10458000E3622B46324639462046FFF7F7FC0746E2
:10459000002866D10023039323685A6903929B691C
:1045A0000393039B11E0236C042B01D00127B4E794
:1045B0002268136843F400731360F7E72A46314614
:1045C0002046FFF75BFE00282ED1238D002B36D02E
:1045D0002A4631462046FFF7BBFD0028E3D1626A38
:1045E000236812781A61606A431C6362618D89B224
:1045F000013989B26185238D013B9BB223852268F5
:10460000516911F0040FD9D0002BD7D04378136132
:10461000636A01336362638D9BB2013B9BB2638526
:10462000238D013B2385C9E7236C042B01D001278F
:1046300073E72268136843F400731360F7E7226896
:10464000136843F400731360202384F83D30002383
:1046500084F83E3084F83C305FE702275DE70227AC
:104660005BE7012759E700BF020010000000FFFFD1
:104670002DE9F04389B004460F4691469846109EB6
:1046800000230793FEF746FF054694F83D00C0B2AD
:10469000202804D00227384609B0BDE8F0830095F1
:1046A0001923012280492046FFF7D5FB002840F05E
:1046B000708194F83C30012B00F06D81012384F867
:1046C0003C3023681A6812F0010F03D11A6842F0D7
:1046D00001021A602268136823F400631360222326
:1046E00084F83D30102384F83E3000232364C4F85E
:1046F0002490A4F82A80638D23856C4BE3622B46BB
:10470000324639462046FFF793FC0746002840F022
:104710004481238D5BB9039323685A6903929A6994
:104720000392039A1A6842F400721A60EEE0012BB9
:104730000FD0022B21D02268136843F480631360EA
:104740000023069323685A6906929B690693069B89
:10475000DCE02268136823F48063136072B60023E0
:10476000049323685A6904929A690492049A1A6815
:1047700042F400721A6062B6C8E02268136843F41B
:104780000063136072B60023059323685A6905928B
:104790009A690592059A1A6822F480621A6062B6D4
:1047A000B4E02A4631462046FFF792FD002840F04B
:1047B000F68023681A69636A1A70636A0133636258
:1047C000238D013B2385638D9BB2013B9BB26385A7
:1047D0009CE000953346002235492046FFF73BFB1D
:1047E000002840F0E0802268136823F4806313609F
:1047F00072B623681A69636A1A70636A0133636266
:10480000238D013B2385638D9BB2013B9BB2638566
:10481000284B1B68DB08284AA2FB03231B0A03EB77
:104820008303C3EBC30307930799013907910799E2
:10483000002928D023685A6912F0040FF4D01A68AE
:1048400042F400721A6023681A69636A1A70636A14
:1048500001336362238D013B2385638D9BB2013B52
:104860009BB2638562B623681A69636A1A70636AC9
:1048700001336362238D013B2385638D9BB2013B32
:104880009BB2638542E000232363202284F83D200D
:1048900084F83E30226C42F02002226462B684F832
:1048A0003C300127F7E600BF020010000000FFFFC8
:1048B000040001002800002089B5F8142A4631467A
:1048C0002046FFF705FD00286FD123681A69636A47
:1048D0001A70626A531C6362238D013B2385638DCA
:1048E0009BB2013B9BB263852368596911F0040FA9
:1048F0000CD01B695370636A01336362238D013BE3
:104900002385638D9BB2013B9BB26385218D00297A
:1049100036D00329D2D801293FF443AF02297FF4CE
:1049200058AF00953346002221492046FFF793FAFD
:10493000002836D172B62268136843F400731360FE
:1049400023681A69636A1A70636A01336362238D8C
:10495000013B2385638D9BB2013B9BB2638562B6AD
:1049600023681A69636A1A70636A01336362238D6C
:10497000013B2385638D9BB2013B9BB26385C5E7F9
:10498000202384F83D30002384F83E3084F83C3006
:1049900081E602277FE602277DE601277BE60127E5
:1049A00079E6012777E6012775E6012773E600BF60
:1049B000040001002DE9F04383B004460F46904601
:1049C00099460C9EFEF7A6FD054694F83D00C0B240
:1049D000202803D0022003B0BDE8F08300951923FE
:1049E00001224B492046FFF736FA002840F0898023
:1049F00094F83C30012B00F08680012384F83C3091
:104A000023681A6812F0010F03D11A6842F00102FC
:104A10001A602268136823F400631360212384F86A
:104A20003D30402384F83E30002323640A9B6362B8
:104A3000BDF82C306385638D2385364BE362019589
:104A400000964B46424639462046FFF7ABFB00280E
:104A50005BD1238D002B35D02A4631462046FFF707
:104A600077FB20BB626A236812781A61626A531C62
:104A70006362218D013989B22185638D9BB2013B2F
:104A80009BB263852368586910F0040FE1D00029B8
:104A9000DFD052781A61636A01336362238D013B70
:104AA0002385638D9BB2013B9BB26385D1E7236C69
:104AB000042B01D001208EE72268136843F40073B1
:104AC0001360F7E72A4631462046FFF7D7FB50B17F
:104AD000236C042B01D001207DE72268136843F486
:104AE00000731360F7E72268136843F400731360E0
:104AF000202384F83D30002384F83E3084F83C3095
:104B000069E7022067E7022065E7012063E700BF4D
:104B1000020010000000FFFF82B0084B1B68084A2B
:104B2000A2FB03235B0A00FB03F3019300BF019B7D
:104B30005A1E0192002BF9D102B0704728000020C4
:104B4000D34D6210002800F0F18170B582B00446A8
:104B5000036813F0010F2CD0994B5B6803F00C0332
:104B6000042B1DD0964B5B6803F00C03082B12D06E
:104B70006368B3F5803F41D0002B55D103F18043EA
:104B800003F504331A6822F480321A601A6822F49A
:104B900080221A6037E08A4B5B6813F4803FE7D0CD
:104BA000874B1B6813F4003F03D06368002B00F0B1
:104BB000BF81236813F0020F75D0814B5B6813F03F
:104BC0000C0F5FD07E4B5B6803F00C03082B54D0B6
:104BD0002369002B00F08A807A4B01221A60FEF7CD
:104BE00099FC0546764B1B6813F0020F75D1FEF752
:104BF00091FC401B0228F5D903209EE1704A1368FE
:104C000043F480331360636843B3FEF783FC0546C7
:104C10006B4B1B6813F4003FCBD1FEF77BFC401BB2
:104C20006428F5D9032088E1B3F5A02F09D0644B9F
:104C30001A6822F480321A601A6822F480221A60FC
:104C4000E1E703F18043A3F53C331A6842F4802284
:104C50001A601A6842F480321A60D4E7FEF75AFCF0
:104C60000546574B1B6813F4003FA2D0FEF752FCD9
:104C7000401B6428F5D903205FE1514B5B6813F4B6
:104C8000803FA5D14E4B1B6813F0020F03D0236960
:104C9000012B40F04F814A4A136823F0F803616901
:104CA00043EAC1031360236813F0080F33D0A369EC
:104CB000002B5CD0434B0122C3F88024FEF72AFC72
:104CC00005463F4B5B6A13F0020F21D1FEF722FC31
:104CD000401B0228F5D903202FE1394A136823F03D
:104CE000F803616943EAC1031360DCE7354B002236
:104CF0001A60FEF70FFC0546314B1B6813F0020FDC
:104D0000D1D0FEF707FC401B0228F5D9032014E19F
:104D10000120FFF701FF236813F0040F00F09680D5
:104D2000274BDB6913F0805F34D1254BDA6942F001
:104D30008052DA61DB6903F080530193019B012506
:104D4000214B1B6813F4807F26D0E368012B3DD0F4
:104D5000002B53D103F1804303F504331A6A22F088
:104D600001021A621A6A22F004021A6233E0154B39
:104D70000022C3F88024FEF7CDFB0546104B5B6A8A
:104D800013F0020FC7D0FEF7C5FB401B0228F5D970
:104D90000320D2E00025D3E70B4A136843F4807365
:104DA0001360FEF7B7FB0646074B1B6813F4807FC2
:104DB000CBD1FEF7AFFB801B6428F5D90320BCE004
:104DC0000010024000004242007000405F4A136A37
:104DD00043F001031362E36833B3FEF79BFB06461F
:104DE0005A4B1B6A13F0020F2FD1FEF793FB801B67
:104DF00041F288339842F3D903209EE0052B09D075
:104E0000524B1A6A22F001021A621A6A22F0040254
:104E10001A62E0E74D4B1A6A42F004021A621A6AFB
:104E200042F001021A62D6E7FEF774FB0646474BD2
:104E30001B6A13F0020F08D0FEF76CFB801B41F2D7
:104E400088339842F3D9032077E0E5B9E369002B72
:104E500072D03E4A526802F00C02082A56D0022B49
:104E600017D03B4B00221A66FEF754FB0446374B23
:104E70001B6813F0007F47D0FEF74CFB001B022895
:104E8000F5D9032059E0314AD36923F08053D36127
:104E9000DCE72F4B00221A66FEF73CFB05462B4B46
:104EA0001B6813F0007F06D0FEF734FB401B02287E
:104EB000F5D9032041E0236AB3F5803F1AD0234996
:104EC0004B6823F47413226A606A024313434B60F5
:104ED0001F4B01221A66FEF71DFB04461B4B1B6885
:104EE00013F0007F0ED1FEF715FB001B0228F5D949
:104EF000032022E0154A536823F40033A1680B43D2
:104F00005360DCE7002018E0002016E0012B16D0EB
:104F10000E4B5B6803F48031226A914211D103F495
:104F20007013626A93420ED1002006E001207047A0
:104F3000012002E0012000E0002002B070BD01204D
:104F4000FBE70120F9E70120F7E700BF001002406E
:104F50000000424286B0164B0FCB0DF1180C0CE945
:104F60000F0040F20123ADF80430124B5B6803F0F0
:104F70000C02082A02D0104806B07047C3F38342DF
:104F8000624412F8100C13F4803F0CD0094B5B689C
:104F9000C3F34043634413F8143C074A02FB00F098
:104FA000B0FBF3F0E8E7054B03FB00F0E4E700BFDC
:104FB000585701080010024000127A0000093D0015
:104FC000002800F0A08070B50D460446524B1B68C7
:104FD00003F007038B420BD24F4A136823F00703F9
:104FE0000B431360136803F007038B4240F08D807E
:104FF000236813F0020F17D013F0040F04D0474AB0
:10500000536843F4E0635360236813F0080F04D03F
:10501000424A536843F460535360404A536823F054
:10502000F003A1680B435360236813F0010F31D0E4
:105030006368012B20D0022B25D0384A126812F069
:10504000020F64D035494A6822F0030213434B60D3
:10505000FEF760FA0646314B5B6803F00C036268AA
:10506000B3EB820F16D0FEF755FA801B41F288335E
:105070009842F0D9032045E0284A126812F4003F14
:10508000E0D101203EE0254A126812F0007FD9D11C
:10509000012037E0204B1B6803F00703AB420AD91D
:1050A0001D4A136823F007032B431360136803F0B2
:1050B0000703AB422DD1236813F0040F06D0174A23
:1050C000536823F4E063E1680B435360236813F0F3
:1050D000080F07D0114A536823F46053216943EA4B
:1050E000C1035360FFF736FF0C4B5B68C3F3031338
:1050F0000B4AD35CD8400B4B18600B4B1868FEF77B
:1051000049F8002070BD012070470120FAE7012016
:10511000F8E70120F6E700BF00200240001002403F
:10512000405701082800002030000020014B18687B
:10513000704700BF2800002008B5FFF7F7FF044BB9
:105140005B68C3F30223034AD35CD84008BD00BFA9
:10515000001002405057010808B5FFF7E7FF044B65
:105160005B68C3F3C223034AD35CD84008BD00BFC9
:1051700000100240505701080F2303600B4B5A6880
:1051800002F0030242605A6802F0F00282605A683C
:1051900002F4E062C2605B68DB0803F4E063036171
:1051A000034B1B6803F007030B60704700100240BD
:1051B0000020024010B4036A046A24F0010404626F
:1051C000846924F0F00C4CEA021223F00A030B432A
:1051D0008261036210BC704710B4046A24F01004AA
:1051E00004628469036A24F4704C4CEA023223F0AE
:1051F000A00343EA01138261036210BC7047836815
:1052000023F070030B4343F00703836070470000F3
:1052100090F83D30DBB2012B27D1022380F83D30DE
:105220000268D36843F00103D3600368114A9342D4
:1052300010D0B3F1804F0DD0A2F59432934209D033
:1052400002F58062934205D01A6842F001021A60AA
:10525000002070479A6802F00702062A07D01A68F1
:1052600042F001021A6000207047012070470020C0
:10527000704700BF002C014070477047704770476F
:1052800010B5044603681A6912F0020F11D0DA68EB
:1052900012F0020F0DD06FF002021A6101230377A2
:1052A00003689B6913F0030F70D0FFF7E6FF00233C
:1052B000237723681A6912F0040F12D0DA6812F00B
:1052C000040F0ED06FF004021A61022323772368C3
:1052D0009B6913F4407F5FD02046FFF7CEFF002389
:1052E000237723681A6912F0080F12D0DA6812F0D7
:1052F000080F0ED06FF008021A6104232377236889
:10530000DB6913F0030F4ED02046FFF7B6FF0023F2
:10531000237723681A6912F0100F12D0DA6812F09E
:10532000100F0ED06FF010021A6108232377236844
:10533000DB6913F4407F3DD02046FFF79EFF00233A
:10534000237723681A6912F0010F03D0DA6812F08C
:10535000010F36D123681A6912F0800F03D0DA6882
:1053600012F0800F34D123681A6912F0400F03D075
:10537000DA6812F0400F32D123681A6912F0200F58
:1053800003D0DA6812F0200F30D110BDFFF774FFA0
:105390002046FFF773FF8AE72046FFF76DFF2046A0
:1053A000FFF76CFF9BE72046FFF766FF2046FFF7FD
:1053B00065FFACE72046FFF75FFF2046FFF75EFF83
:1053C000BDE76FF001021A612046FCF78DF8C1E7D6
:1053D0006FF080021A61204600F027F9C3E76FF0F2
:1053E00040021A612046FFF74AFFC5E76FF020022E
:1053F0001A61204600F018F9C7E7000003681B4A4D
:1054000090420AD0B0F1804F07D0A2F5943290427A
:1054100003D002F58062904203D123F070034A6802
:105420001343124A90420AD0B0F1804F07D0A2F540
:105430009432904203D002F58062904203D123F46B
:105440004073CA68134323F080034A69134303601F
:105450008B68C3620B688362044B984202D00123BD
:10546000436170470B690363F9E700BF002C0140FB
:1054700040B310B5044690F83D30F3B1022384F8F0
:105480003D30214651F8040BFFF7B8FF012384F8A3
:10549000463084F83E3084F83F3084F8403084F859
:1054A000413084F8423084F8433084F8443084F842
:1054B000453084F83D30002010BD80F83C30FDF7C9
:1054C00061FFDBE70120704710B4846824F47F4C4F
:1054D00042EA03220A4342EA0C02826010BC70478F
:1054E00090F83C30012B66D010B50446012380F8BB
:1054F0003C30022380F83D300268936823F47F43F8
:1055000023F0770393600B68602B40D022D8402BA8
:1055100047D00BD9502B0ED1CA6849680068FFF7F5
:1055200049FE50212068FFF76AFE04E0202B0CD0D2
:1055300008D9302B09D0012384F83D30002084F8AD
:105540003C0010BD0BB1102BF5D119462068FFF7B8
:1055500056FEF0E7702B0ED0B3F5005FEBD1CB68B1
:105560004A6889680068FFF7AFFF2268936843F4D0
:1055700080439360DFE7CB684A6889680068FFF77B
:10558000A3FF2268936843F077039360D3E7CA6868
:1055900049680068FFF720FE60212068FFF72FFEB2
:1055A000C9E7CA6849680068FFF704FE402120681F
:1055B000FFF725FEBFE702207047000090F83C305F
:1055C000012B2CD010B4012380F83C30022380F84A
:1055D0003D3003685A689C6822F0700C0A6842EA01
:1055E0000C025A6003680F4A93420AD0B3F1804F0D
:1055F00007D0A2F59432934203D002F58062934221
:1056000004D124F080044A6814439C60012380F88C
:105610003D30002380F83C30184610BC7047022013
:10562000704700BF002C0140704770470268D36884
:1056300023F0C003D360202380F83D307047026818
:10564000D36823F49073D3600268536923F0010395
:105650005361036B012B05D0202380F83E300023DB
:10566000036370470268D36823F01003D360F3E745
:1056700090F83D30DBB2212B01D0022070478368C7
:10568000B3F5805F17D0036A5A1C02621A78036868
:105690005A60C38C9BB2013B9BB2C3844BB9026876
:1056A000D36823F08003D3600268D36843F04003DB
:1056B000D360002070470369002BE4D1036A1B8884
:1056C0000268C3F308035360036A02330362E0E72E
:1056D00010B504460268136923F44053C1680B43B4
:1056E000136183680269134342691A430168CB68F6
:1056F00023F4B05323F00C031343CB6002685369C7
:1057000023F4407381690B4353610268134B9A423F
:1057100020D0FFF711FD024602EB820202EB82026B
:1057200063689B00B2FBF3F20D48A0FB023149090C
:10573000642303FB11231B013233A0FB03235B090A
:1057400003F0F00202EB011203F00F03216813448F
:105750008B6010BDFFF700FD0246DDE70038014019
:105760001F85EB5158B310B5044690F83D300BB38C
:10577000242384F83D302268D36823F40053D36097
:105780002046FFF7A5FF2268136923F490431361B5
:105790002268536923F02A0353612268D36843F4D3
:1057A0000053D36000202064202384F83D3084F827
:1057B0003E3010BD80F83C30FDF712FED8E70120E6
:1057C0007047000038B590F83D30DBB2202B31D166
:1057D0000446002930D0002A30D090F83C30012B0C
:1057E0002ED0012380F83C3001628284C2840025DF
:1057F0000564212380F83D30436B12489862636B47
:105800001148D862636B11481863636B5D6320684D
:105810001346021D606BFEF7A3F823686FF0400289
:105820001A6084F83C502268536943F08003536146
:10583000284600E0022038BD0120FCE70120FAE7FD
:105840000220F8E7515800089D580008AB5800089E
:1058500008B50346406A1B681B6813F0200F0CD183
:105860000023C3840268536923F0800353610268F4
:10587000D36843F04003D36008BDFCF7C1FEFBE7EB
:1058800008B50168CA6822F04002CA60202280F888
:105890003D20FCF7B5FE002008BD704708B5406A02
:1058A000FFF7FBFF08BD7047704710B5446A2368D7
:1058B0005A6994F83D30DBB2212B10D023685A6925
:1058C00002F0400294F83E30DBB2222B11D0236C60
:1058D00043F0100323642046FFF7E6FF10BD02F0FB
:1058E0008002002AEAD00023E3842046FFF79EFED0
:1058F000E4E7002AEBD00023E3852046FFF79FFE74
:10590000E5E708B5406A0023C385C384FFF7CCFFF1
:1059100008BD704790F83E30DBB2222B60D183681F
:10592000B3F5805F46D0826AB3F5805F04D0002B68
:105930004DD10369002B4AD103685B681370836AF9
:1059400001338362C38D9BB2013B9BB2C385002BA5
:1059500048D100B583B00268D36823F02003D36038
:105960000268D36823F48073D3600268536923F01C
:1059700001035361202380F83E30036B012B2CD1AF
:10598000002303630268D36823F01003D360036825
:105990001A6812F0100F06D0002201921A680192C4
:1059A0005B680193019B818DFFF7B3FF002003B07B
:1059B0005DF804FB0269002AB5D1826A03685B685E
:1059C000C3F308031380836A02338362BAE7036870
:1059D0005B6803F07F031370B1E7FCF727FEE5E790
:1059E000022070470020704730B583B0044602683B
:1059F0001368D068516913F00F0505D113F0200F1B
:105A000002D010F0200F19D12DB111F0010119D1E0
:105A100010F4907F16D1216B012975D013F0800FFF
:105A200003D010F0800F40F0D78013F0400F03D068
:105A300010F0400F40F0D48003B030BD2046FFF797
:105A400069FFF9E713F0010F06D010F4807F03D04F
:105A5000226C42F00102226413F0040F04D019B149
:105A6000226C42F00202226413F0020F04D019B13A
:105A7000226C42F00402226413F0080F07D010F0E9
:105A8000200F00D119B1226C42F008022264226C6E
:105A9000002AD1D013F0200F02D010F0200F21D116
:105AA00023685B6903F04003226C12F0080F00D1F9
:105AB00023B32046FFF7C3FD23685A6912F0400F55
:105AC00018D05A6922F040025A61A36B73B1464A5A
:105AD0005A63A06BFDF7A0FF0028ADD0A06B436B0D
